{
  "_format": "hh-sol-artifact-1",
  "contractName": "CryptoFundraiser",
  "sourceName": "contracts/CryptoFundraiser.sol",
  "abi": [
    {
      "anonymous": false,
      "inputs": [
        {
          "indexed": true,
          "internalType": "uint32",
          "name": "campaignId",
          "type": "uint32"
        },
        {
          "indexed": false,
          "internalType": "bool",
          "name": "successful",
          "type": "bool"
        }
      ],
      "name": "CampaignCompleted",
      "type": "event"
    },
    {
      "anonymous": false,
      "inputs": [
        {
          "indexed": true,
          "internalType": "uint32",
          "name": "campaignId",
          "type": "uint32"
        },
        {
          "indexed": true,
          "internalType": "address",
          "name": "owner",
          "type": "address"
        },
        {
          "indexed": false,
          "internalType": "string",
          "name": "title",
          "type": "string"
        },
        {
          "indexed": false,
          "internalType": "uint96",
          "name": "goal",
          "type": "uint96"
        },
        {
          "indexed": false,
          "internalType": "uint40",
          "name": "deadline",
          "type": "uint40"
        }
      ],
      "name": "CampaignCreated",
      "type": "event"
    },
    {
      "anonymous": false,
      "inputs": [
        {
          "indexed": true,
          "internalType": "uint32",
          "name": "campaignId",
          "type": "uint32"
        },
        {
          "indexed": true,
          "internalType": "address",
          "name": "donor",
          "type": "address"
        },
        {
          "indexed": false,
          "internalType": "uint96",
          "name": "amount",
          "type": "uint96"
        },
        {
          "indexed": false,
          "internalType": "string",
          "name": "message",
          "type": "string"
        }
      ],
      "name": "DonationReceived",
      "type": "event"
    },
    {
      "anonymous": false,
      "inputs": [
        {
          "indexed": true,
          "internalType": "uint32",
          "name": "campaignId",
          "type": "uint32"
        },
        {
          "indexed": false,
          "internalType": "uint96",
          "name": "amount",
          "type": "uint96"
        }
      ],
      "name": "FundsWithdrawn",
      "type": "event"
    },
    {
      "inputs": [],
      "name": "MAX_DESCRIPTION_LENGTH",
      "outputs": [
        {
          "internalType": "uint16",
          "name": "",
          "type": "uint16"
        }
      ],
      "stateMutability": "view",
      "type": "function"
    },
    {
      "inputs": [],
      "name": "MAX_DURATION_DAYS",
      "outputs": [
        {
          "internalType": "uint16",
          "name": "",
          "type": "uint16"
        }
      ],
      "stateMutability": "view",
      "type": "function"
    },
    {
      "inputs": [],
      "name": "MAX_GOAL",
      "outputs": [
        {
          "internalType": "uint96",
          "name": "",
          "type": "uint96"
        }
      ],
      "stateMutability": "view",
      "type": "function"
    },
    {
      "inputs": [],
      "name": "MAX_IMAGE_URL_LENGTH",
      "outputs": [
        {
          "internalType": "uint8",
          "name": "",
          "type": "uint8"
        }
      ],
      "stateMutability": "view",
      "type": "function"
    },
    {
      "inputs": [],
      "name": "MAX_TITLE_LENGTH",
      "outputs": [
        {
          "internalType": "uint8",
          "name": "",
          "type": "uint8"
        }
      ],
      "stateMutability": "view",
      "type": "function"
    },
    {
      "inputs": [],
      "name": "campaignCount",
      "outputs": [
        {
          "internalType": "uint32",
          "name": "",
          "type": "uint32"
        }
      ],
      "stateMutability": "view",
      "type": "function"
    },
    {
      "inputs": [
        {
          "internalType": "uint32",
          "name": "",
          "type": "uint32"
        }
      ],
      "name": "campaigns",
      "outputs": [
        {
          "internalType": "address payable",
          "name": "owner",
          "type": "address"
        },
        {
          "internalType": "string",
          "name": "title",
          "type": "string"
        },
        {
          "internalType": "string",
          "name": "description",
          "type": "string"
        },
        {
          "internalType": "string",
          "name": "image",
          "type": "string"
        },
        {
          "internalType": "uint96",
          "name": "goal",
          "type": "uint96"
        },
        {
          "internalType": "uint40",
          "name": "deadline",
          "type": "uint40"
        },
        {
          "internalType": "uint96",
          "name": "balance",
          "type": "uint96"
        },
        {
          "internalType": "bool",
          "name": "completed",
          "type": "bool"
        },
        {
          "internalType": "bool",
          "name": "autoComplete",
          "type": "bool"
        },
        {
          "internalType": "enum CryptoFundraiser.Status",
          "name": "status",
          "type": "uint8"
        }
      ],
      "stateMutability": "view",
      "type": "function"
    },
    {
      "inputs": [
        {
          "internalType": "uint32",
          "name": "_campaignId",
          "type": "uint32"
        }
      ],
      "name": "canCompleteCampaign",
      "outputs": [
        {
          "internalType": "bool",
          "name": "",
          "type": "bool"
        }
      ],
      "stateMutability": "view",
      "type": "function"
    },
    {
      "inputs": [
        {
          "internalType": "uint32",
          "name": "_campaignId",
          "type": "uint32"
        }
      ],
      "name": "canWithdrawFunds",
      "outputs": [
        {
          "internalType": "bool",
          "name": "",
          "type": "bool"
        }
      ],
      "stateMutability": "view",
      "type": "function"
    },
    {
      "inputs": [
        {
          "internalType": "uint32",
          "name": "_campaignId",
          "type": "uint32"
        }
      ],
      "name": "completeCampaign",
      "outputs": [],
      "stateMutability": "nonpayable",
      "type": "function"
    },
    {
      "inputs": [
        {
          "internalType": "string",
          "name": "title",
          "type": "string"
        },
        {
          "internalType": "string",
          "name": "description",
          "type": "string"
        },
        {
          "internalType": "uint96",
          "name": "goalInWei",
          "type": "uint96"
        },
        {
          "internalType": "uint16",
          "name": "durationInDays",
          "type": "uint16"
        },
        {
          "internalType": "string",
          "name": "image",
          "type": "string"
        },
        {
          "internalType": "bool",
          "name": "autoComplete",
          "type": "bool"
        }
      ],
      "name": "createCampaign",
      "outputs": [],
      "stateMutability": "nonpayable",
      "type": "function"
    },
    {
      "inputs": [
        {
          "internalType": "uint32",
          "name": "_campaignId",
          "type": "uint32"
        },
        {
          "internalType": "string",
          "name": "message",
          "type": "string"
        }
      ],
      "name": "donate",
      "outputs": [],
      "stateMutability": "payable",
      "type": "function"
    },
    {
      "inputs": [
        {
          "internalType": "address",
          "name": "",
          "type": "address"
        },
        {
          "internalType": "uint32",
          "name": "",
          "type": "uint32"
        }
      ],
      "name": "donations",
      "outputs": [
        {
          "internalType": "uint96",
          "name": "",
          "type": "uint96"
        }
      ],
      "stateMutability": "view",
      "type": "function"
    },
    {
      "inputs": [
        {
          "internalType": "uint32",
          "name": "_campaignId",
          "type": "uint32"
        }
      ],
      "name": "getCampaign",
      "outputs": [
        {
          "components": [
            {
              "internalType": "address payable",
              "name": "owner",
              "type": "address"
            },
            {
              "internalType": "string",
              "name": "title",
              "type": "string"
            },
            {
              "internalType": "string",
              "name": "description",
              "type": "string"
            },
            {
              "internalType": "string",
              "name": "image",
              "type": "string"
            },
            {
              "internalType": "uint96",
              "name": "goal",
              "type": "uint96"
            },
            {
              "internalType": "uint40",
              "name": "deadline",
              "type": "uint40"
            },
            {
              "internalType": "uint96",
              "name": "balance",
              "type": "uint96"
            },
            {
              "internalType": "bool",
              "name": "completed",
              "type": "bool"
            },
            {
              "internalType": "bool",
              "name": "autoComplete",
              "type": "bool"
            },
            {
              "internalType": "enum CryptoFundraiser.Status",
              "name": "status",
              "type": "uint8"
            }
          ],
          "internalType": "struct CryptoFundraiser.Campaign",
          "name": "",
          "type": "tuple"
        }
      ],
      "stateMutability": "view",
      "type": "function"
    },
    {
      "inputs": [
        {
          "internalType": "uint32",
          "name": "_campaignId",
          "type": "uint32"
        }
      ],
      "name": "getCampaignStatus",
      "outputs": [
        {
          "internalType": "enum CryptoFundraiser.Status",
          "name": "",
          "type": "uint8"
        }
      ],
      "stateMutability": "view",
      "type": "function"
    },
    {
      "inputs": [],
      "name": "getCampaigns",
      "outputs": [
        {
          "components": [
            {
              "internalType": "address payable",
              "name": "owner",
              "type": "address"
            },
            {
              "internalType": "string",
              "name": "title",
              "type": "string"
            },
            {
              "internalType": "string",
              "name": "description",
              "type": "string"
            },
            {
              "internalType": "string",
              "name": "image",
              "type": "string"
            },
            {
              "internalType": "uint96",
              "name": "goal",
              "type": "uint96"
            },
            {
              "internalType": "uint40",
              "name": "deadline",
              "type": "uint40"
            },
            {
              "internalType": "uint96",
              "name": "balance",
              "type": "uint96"
            },
            {
              "internalType": "bool",
              "name": "completed",
              "type": "bool"
            },
            {
              "internalType": "bool",
              "name": "autoComplete",
              "type": "bool"
            },
            {
              "internalType": "enum CryptoFundraiser.Status",
              "name": "status",
              "type": "uint8"
            }
          ],
          "internalType": "struct CryptoFundraiser.Campaign[]",
          "name": "",
          "type": "tuple[]"
        }
      ],
      "stateMutability": "view",
      "type": "function"
    },
    {
      "inputs": [
        {
          "internalType": "uint32",
          "name": "_campaignId",
          "type": "uint32"
        }
      ],
      "name": "getDonations",
      "outputs": [
        {
          "internalType": "uint96",
          "name": "",
          "type": "uint96"
        }
      ],
      "stateMutability": "view",
      "type": "function"
    },
    {
      "inputs": [
        {
          "internalType": "uint32",
          "name": "_campaignId",
          "type": "uint32"
        }
      ],
      "name": "refund",
      "outputs": [],
      "stateMutability": "nonpayable",
      "type": "function"
    },
    {
      "inputs": [
        {
          "internalType": "uint32",
          "name": "_campaignId",
          "type": "uint32"
        }
      ],
      "name": "withdrawFunds",
      "outputs": [],
      "stateMutability": "nonpayable",
      "type": "function"
    }
  ],
  "bytecode": "0x6080806040523461001657611de3908161001c8239f35b600080fdfe608080604052600436101561001357600080fd5b60003560e01c9081630b1517e3146116c05750806314fb440a146114e557806316855ab3146114c25780631c48c074146112845780632b6adf4314610fd95780632ef9a16014610fbd5780633031331414610782578063309bb3f21461075e5780634ced1d3d146106f95780636c14e12c146106c75780636e099e421461069a5780637274e30d146106765780637a92a2b7146106185780639201ea0a146105fb578063a6b036331461042b578063e27c2cf41461031b578063eb81b52714610222578063ef98fbbf146102065763f54c9381146100f057600080fd5b34610201576020366003190112610201576101fd61010c6116da565b610114611a81565b5063ffffffff61012d81600054169183169182106119ab565b60005260016020526101e96101466040600020926119f7565b825460048401546040519460ff92610197916003916001600160a01b031661016d89611852565b885261017b60018201611891565b602089015261018c60028201611891565b604089015201611891565b60608601526001600160601b03808216608087015264ffffffffff8260601c1660a08701528160881c1660c0860152818160e81c16151560e086015260f01c161515610100840152610120830161197e565b604051918291602083526020830190611768565b0390f35b600080fd5b3461020157600036600319011261020157602060405160b48152f35b346102015760203660031901126102015763ffffffff6102406116da565b166000526001602052604060002060018060a01b0381541661026460018301611891565b916101fd6102c561027760028401611891565b926102b7600461028960038401611891565b920154946102a960405198899889526101408060208b0152890190611728565b908782036040890152611728565b908582036060870152611728565b916001600160601b03808216608086015264ffffffffff8260601c1660a08601528160881c1660c085015260ff8160e81c16151560e085015260ff8160f01c16151561010085015261012084019060f81c61171b565b34610201576020366003190112610201576103346116da565b63ffffffff61034c81600054169183169182106119ab565b600052600160205260406000209060018060a01b0382541633036103da5761037381611b60565b156103965761038f60ff600461039494015460e81c1615611af9565b611c1a565b005b606460405162461bcd60e51b815260206004820152602060248201527f43616d706169676e2063616e6e6f7420626520636f6d706c65746564207965746044820152fd5b60405162461bcd60e51b8152602060048201526024808201527f4f6e6c79206f776e65722063616e20636f6d706c657465207468652063616d7060448201526330b4b3b760e11b6064820152608490fd5b346102015760003660031901126102015763ffffffff80600054169061045082611a69565b9161045e604051938461186f565b808352601f1961046d82611a69565b0160005b8181106105e457505060005b82811690828210156105855761055e828593600052600161054d6020918083526040600020906104f760036104b1896119f7565b9360018060a01b03815416966104dc600483015495604051996104d38b611852565b8a528301611891565b908801526104ec60028201611891565b604088015201611891565b6060908186015264ffffffffff826001600160601b039283821660808901521c1660a08601528160881c1660c085015260ff90818160e81c16151560e086015260f01c161515610100840152610120830161197e565b6105578289611acf565b5286611acf565b501682811461056f5760010161047d565b634e487b7160e01b600052601160045260246000fd5b6040805160208082528751818301819052600093600582901b8401810192808b01929185015b8287106105b85785850386f35b9091929382806105d4600193603f198a82030186528851611768565b96019201960195929190926105ab565b6020906105ef611a81565b82828801015201610471565b346102015760003660031901126102015760206040516101f48152f35b34610201576020366003190112610201576106316116da565b61064863ffffffff806000541692169182106119ab565b33600052600260205260406000209060005260205260206001600160601b0360406000205416604051908152f35b3461020157600036600319011261020157602063ffffffff60005416604051908152f35b346102015760203660031901126102015760206106bd6106b86116da565b611b60565b6040519015158152f35b346102015760203660031901126102015760206106ea6106e56116da565b6119f7565b6106f7604051809261171b565bf35b34610201576040366003190112610201576004356001600160a01b03811690819003610201576024359063ffffffff821680920361020157600052600260205260406000209060005260205260206001600160601b0360406000205416604051908152f35b3461020157600036600319011261020157602060405168056bc75e2d631000008152f35b346102015760c03660031901126102015760043567ffffffffffffffff8111610201576107b39036906004016116ed565b60243567ffffffffffffffff8111610201576107d39036906004016116ed565b90916044938435946001600160601b038616860361020157606491823561ffff81168091036102015760843567ffffffffffffffff81116102015761081c9036906004016116ed565b60a435928315158403610201576001600160601b038b16151580610fa1575b15610f6f5780151580610f64575b15610f2e57610859368987611937565b610864368b8d611937565b61086f368587611937565b91518015159081610f22575b5015610eef57518015159081610ee2575b5015610ea95760c8905111610e725762015180029564ffffffffff9687811690810361056f5742019586421161056f57428888161115610e3e5750509061090d9161090163ffffffff600054169a6040519a6108e78c611852565b338c526108f5368c8a611937565b60208d01523691611937565b60408a01523691611937565b60608701526001600160601b038816608087015283831660a0870152600060c0870152600060e087015215156101008601526000610120860152856000526001602052604060002060018060a01b038651166001600160601b0360a01b825416178155602086015180519067ffffffffffffffff8211610c885781906109966001850154611818565b601f8111610deb575b50602090601f8311600114610d7957600092610d6e575b50508160011b916000199060031b1c19161760018201555b604086015180519067ffffffffffffffff8211610c885781906109f46002850154611818565b601f8111610d1b575b50602090601f8311600114610ca957600092610c9e575b50508160011b916000199060031b1c19161760028201555b606086015180519067ffffffffffffffff8211610c8857610a506003840154611818565b601f8111610c41575b50602090601f8311600114610bce57600493929160009183610bc3575b50508160011b916000199060031b1c19161760038201555b60808701519101805460a088015160c08901516001600160e81b03199092166001600160601b03949094169390931760609390931b64ffffffffff60601b169290921760889290921b600160881b600160e81b03169190911781559060e086015115159082549261012060ff60f01b6101008a0151151560f01b16980151926003841015610bad577f7342d354241c5153c030c2ec251afbc72b28d6760adae5ffdc26257d3dab258e986001600160601b0395610b7a9560ff60f81b9060f81b169260ff60e81b9060e81b169060018060e81b031617171790556040519560608752606087019161198a565b961660208401521660408201528033940390a360005463ffffffff600181831601169063ffffffff191617600055600080f35b634e487b7160e01b600052602160045260246000fd5b015190508b80610a76565b906003840160005260206000209160005b601f1985168110610c29575091839160019360049695601f19811610610c10575b505050811b016003820155610a8e565b015160001960f88460031b161c191690558b8080610c00565b91926020600181928685015181550194019201610bdf565b600384016000526020600020601f840160051c810160208510610c81575b601f830160051c82018110610c75575050610a59565b60008155600101610c5f565b5080610c5f565b634e487b7160e01b600052604160045260246000fd5b015190508a80610a14565b9250600284016000526020600020906000935b601f1984168510610d00576001945083601f19811610610ce7575b505050811b016002820155610a2c565b015160001960f88460031b161c191690558a8080610cd7565b81810151835560209485019460019093019290910190610cbc565b909150600284016000526020600020601f840160051c810160208510610d67575b90849392915b601f830160051c82018110610d585750506109fd565b60008155859450600101610d42565b5080610d3c565b015190508a806109b6565b9250600184016000526020600020906000935b601f1984168510610dd0576001945083601f19811610610db7575b505050811b0160018201556109ce565b015160001960f88460031b161c191690558a8080610da7565b81810151835560209485019460019093019290910190610d8c565b909150600184016000526020600020601f840160051c810160208510610e37575b90849392915b601f830160051c82018110610e2857505061099f565b60008155859450600101610e12565b5080610e0c565b6f496e76616c696420646561646c696e6560801b6040519162461bcd60e51b83526020600484015260106024840152820152fd5b60405162461bcd60e51b8152602060048201526011602482015270125b9d985b1a59081a5b5859d948155493607a1b818801528790fd5b60405162461bcd60e51b815260206004820152601360248201527224b73b30b634b2103232b9b1b934b83a34b7b760691b818901528890fd5b6101f4915011158d61088c565b60405162461bcd60e51b815260206004820152600d60248201526c496e76616c6964207469746c6560981b818a01528990fd5b6032915011158e61087b565b60405162461bcd60e51b815260206004820152601060248201526f24b73b30b634b210323ab930ba34b7b760811b818801528790fd5b5060b4811115610849565b60405162461bcd60e51b815260206004820152600c60248201526b125b9d985b1a590819dbd85b60a21b818801528790fd5b5068056bc75e2d631000006001600160601b038c16111561083b565b3461020157600036600319011261020157602060405160328152f35b604036600319011261020157610fed6116da565b6024803567ffffffffffffffff81116102015761100e9036906004016116ed565b63ffffffff61102681600054169186169182106119ab565b80600052602060018152600460406000200193845464ffffffffff8160601c1642101561124b5761105d60ff8260e81c1615611af9565b34156112075761106c886119f7565b60038110156111f2576111b5576001600160601b0396873411611172575061113b7f21565bac0892b6208b8ee6693029969e0e675266cb19032c73aae40aa05e5aeb93926110ed6110c78a9485341695869160881c16611b45565b8954600160881b600160e81b03191660889190911b600160881b600160e81b0316178955565b33600052600284526040600020866000528452604060002080548a61111486828416611b45565b16906001600160601b0319161790556040805194859485528401523396604084019161198a565b0390a35460ff8160f01c16918261115e575b505061115557005b61039490611c1a565b8181929350169160881c161015828061114d565b8360196064926040519262461bcd60e51b845260048401528201527f446f6e6174696f6e20616d6f756e7420746f6f206c61726765000000000000006044820152fd5b60405162461bcd60e51b8152600481018490526016818901527543616d706169676e206973206e6f742061637469766560501b6044820152606490fd5b87634e487b7160e01b60005260216004526000fd5b60405162461bcd60e51b815260048101849052601f818901527f446f6e6174696f6e206d7573742062652067726561746572207468616e2030006044820152606490fd5b60405162461bcd60e51b8152600481018490526012818901527110d85b5c185a59db881a185cc8195b99195960721b6044820152606490fd5b34610201576020806003193601126102015761129e6116da565b9063ffffffff6112b781600054169184169182106119ab565b806000526001825260046040600020019081549364ffffffffff8560601c16421061147d576001600160601b0394858116868260881c16101561143857906106e560ff6113089360e81c1615611af9565b6003811015610bad576001146113f5573360005260028352604060002081600052835283604060002054169283156113b15733600052600281526040600020916000525260406000206001600160601b031981541690558183825460881c160392831161056f578054600160881b600160e81b031916608884901b600160881b600160e81b03161790556000908190819081903382f1156113a557005b6040513d6000823e3d90fd5b6064906040519062461bcd60e51b82526004820152601f60248201527f596f752068617665206e6f20646f6e6174696f6e7320746f20726566756e64006044820152fd5b6064836040519062461bcd60e51b825280600483015260248201527f43616e6e6f7420726566756e6420636f6d706c657465642063616d706169676e6044820152fd5b60405162461bcd60e51b815260048101869052601960248201527f43616d706169676e20726561636865642069747320676f616c000000000000006044820152606490fd5b60405162461bcd60e51b815260048101859052601860248201527f43616d706169676e206973207374696c6c2061637469766500000000000000006044820152606490fd5b346102015760203660031901126102015760206106bd6114e06116da565b611d36565b3461020157602080600319360112610201576114ff6116da565b9061151763ffffffff806000541693169283106119ab565b81600052600181526040600020906004820180549260ff8460e81c161561167b57546001600160a01b03169033829003611636576001600160601b0393848160881c169485156115fa57811685106115b557600160881b600160e81b0319169055600090819081908190869082f1156113a5577f78dc5fef50bade7b37fbea8cfc1a9183555c21a57dc3bf9a4030c5d98be67d0091604051908152a2005b60405162461bcd60e51b815260048101859052601f60248201527f43616d706169676e20646964206e6f742072656163682069747320676f616c006044820152606490fd5b60405162461bcd60e51b81526004810186905260146024820152734e6f2066756e647320746f20776974686472617760601b6044820152606490fd5b60405162461bcd60e51b815260048101849052601d60248201527f4f6e6c79206f776e65722063616e2077697468647261772066756e64730000006044820152606490fd5b60405162461bcd60e51b815260048101849052601960248201527f43616d706169676e206973206e6f7420636f6d706c65746564000000000000006044820152606490fd5b34610201576000366003190112610201578060c860209252f35b6004359063ffffffff8216820361020157565b9181601f840112156102015782359167ffffffffffffffff8311610201576020838186019501011161020157565b906003821015610bad5752565b919082519283825260005b848110611754575050826000602080949584010152601f8019910116010190565b602081830181015184830182015201611733565b906118159060018060a01b0383511681526117bc6117aa6117986020860151610140806020870152850190611728565b60408601518482036040860152611728565b60608501518382036060850152611728565b926001600160601b0380608083015116608084015264ffffffffff60a08301511660a084015260c08201511660c083015260e0810151151560e0830152610100808201511515908301526101208091015191019061171b565b90565b90600182811c92168015611848575b602083101461183257565b634e487b7160e01b600052602260045260246000fd5b91607f1691611827565b610140810190811067ffffffffffffffff821117610c8857604052565b90601f8019910116810190811067ffffffffffffffff821117610c8857604052565b90604051918260008254926118a584611818565b90818452600194858116908160001461191457506001146118d1575b50506118cf9250038361186f565b565b9093915060005260209081600020936000915b8183106118fc5750506118cf935082010138806118c1565b855488840185015294850194879450918301916118e4565b9150506118cf94506020925060ff191682840152151560051b82010138806118c1565b92919267ffffffffffffffff8211610c885760405191611961601f8201601f19166020018461186f565b829481845281830111610201578281602093846000960137010152565b6003821015610bad5752565b908060209392818452848401376000828201840152601f01601f1916010190565b156119b257565b60405162461bcd60e51b815260206004820152601760248201527f43616d706169676e20646f6573206e6f742065786973740000000000000000006044820152606490fd5b611a0e63ffffffff806000541692169182106119ab565b600052600160205260046040600020015460ff8160e81c16611a635764ffffffffff8160601c16421015611a425750600090565b6001600160601b0381811660889290921c1610611a5e57600190565b600290565b60f81c90565b67ffffffffffffffff8111610c885760051b60200190565b60405190611a8e82611852565b8161012060009182815260606020820152606060408201526060808201528260808201528260a08201528260c08201528260e0820152826101008201520152565b8051821015611ae35760209160051b010190565b634e487b7160e01b600052603260045260246000fd5b15611b0057565b60405162461bcd60e51b815260206004820152601d60248201527f43616d706169676e20697320616c726561647920636f6d706c657465640000006044820152606490fd5b9190916001600160601b038080941691160191821161056f57565b611b7763ffffffff806000541692169182106119ab565b60005260016020526040600020600481015460ff8160e81c16611c135760ff8160f01c1680611bfa575b611bf35764ffffffffff8160601c16421015611bf3576001600160601b038082169160881c1610159081611bdf575b50611bda57600090565b600190565b546001600160a01b03163314905038611bd0565b5050600190565b506001600160601b03808216908260881c161015611ba1565b5050600090565b63ffffffff1660008181526001602052604081206004810190815490611c4660ff8360e81c1615611af9565b60ff60e81b198216600160e81b178084556001600160601b03929083821660889190911c841610611cf1575082546001600160f81b0316600160f81b179283905554839283928392839260881c909116906001600160a01b0316828215611ce8575bf115611cdc57507f205533498adad1b061e07ecc3e4093be2be641794a46996ea80cdcc5a8631639602060405160018152a2565b604051903d90823e3d90fd5b506108fc611ca8565b600161ff0160e81b03166202000160e81b1790925550506040519081527f205533498adad1b061e07ecc3e4093be2be641794a46996ea80cdcc5a863163990602090a2565b63ffffffff90611d506000928084541692169182106119ab565b815260016020526040812060048101549060ff8260e81c1615611da857546001600160a01b03163303611da4576001600160601b03808260881c16918215611d9e5716116118155750600190565b50505090565b5090565b50509056fea26469706673582212209ea996058863ff1e05ef7e1769c7f0935108a191657b606e008287e0fbccdfb664736f6c63430008130033",
  "linkReferences": {},
  "deployedLinkReferences": {}
}