{
  "_format": "hh-sol-artifact-1",
  "contractName": "CryptoFundraiser",
  "sourceName": "contracts/CryptoFundraiser.sol",
  "abi": [
    {
      "anonymous": false,
      "inputs": [
        {
          "indexed": true,
          "internalType": "uint256",
          "name": "campaignId",
          "type": "uint256"
        },
        {
          "indexed": false,
          "internalType": "bool",
          "name": "successful",
          "type": "bool"
        }
      ],
      "name": "CampaignCompleted",
      "type": "event"
    },
    {
      "anonymous": false,
      "inputs": [
        {
          "indexed": true,
          "internalType": "uint256",
          "name": "campaignId",
          "type": "uint256"
        },
        {
          "indexed": true,
          "internalType": "address",
          "name": "owner",
          "type": "address"
        },
        {
          "indexed": false,
          "internalType": "string",
          "name": "title",
          "type": "string"
        },
        {
          "indexed": false,
          "internalType": "string",
          "name": "description",
          "type": "string"
        },
        {
          "indexed": false,
          "internalType": "string",
          "name": "image",
          "type": "string"
        },
        {
          "indexed": false,
          "internalType": "uint256",
          "name": "goal",
          "type": "uint256"
        },
        {
          "indexed": false,
          "internalType": "uint256",
          "name": "deadline",
          "type": "uint256"
        }
      ],
      "name": "CampaignCreated",
      "type": "event"
    },
    {
      "anonymous": false,
      "inputs": [
        {
          "indexed": true,
          "internalType": "uint256",
          "name": "campaignId",
          "type": "uint256"
        },
        {
          "indexed": true,
          "internalType": "address",
          "name": "donor",
          "type": "address"
        },
        {
          "indexed": false,
          "internalType": "uint256",
          "name": "amount",
          "type": "uint256"
        },
        {
          "indexed": false,
          "internalType": "string",
          "name": "message",
          "type": "string"
        }
      ],
      "name": "DonationReceived",
      "type": "event"
    },
    {
      "anonymous": false,
      "inputs": [
        {
          "indexed": true,
          "internalType": "uint256",
          "name": "campaignId",
          "type": "uint256"
        },
        {
          "indexed": true,
          "internalType": "address",
          "name": "owner",
          "type": "address"
        },
        {
          "indexed": false,
          "internalType": "uint256",
          "name": "amount",
          "type": "uint256"
        }
      ],
      "name": "FundsWithdrawn",
      "type": "event"
    },
    {
      "inputs": [],
      "name": "campaignCount",
      "outputs": [
        {
          "internalType": "uint256",
          "name": "",
          "type": "uint256"
        }
      ],
      "stateMutability": "view",
      "type": "function"
    },
    {
      "inputs": [
        {
          "internalType": "uint256",
          "name": "",
          "type": "uint256"
        }
      ],
      "name": "campaigns",
      "outputs": [
        {
          "internalType": "address payable",
          "name": "owner",
          "type": "address"
        },
        {
          "internalType": "string",
          "name": "title",
          "type": "string"
        },
        {
          "internalType": "string",
          "name": "description",
          "type": "string"
        },
        {
          "internalType": "string",
          "name": "image",
          "type": "string"
        },
        {
          "internalType": "uint256",
          "name": "goal",
          "type": "uint256"
        },
        {
          "internalType": "uint256",
          "name": "deadline",
          "type": "uint256"
        },
        {
          "internalType": "uint256",
          "name": "balance",
          "type": "uint256"
        },
        {
          "internalType": "bool",
          "name": "completed",
          "type": "bool"
        },
        {
          "internalType": "bool",
          "name": "autoComplete",
          "type": "bool"
        },
        {
          "internalType": "enum CryptoFundraiser.Status",
          "name": "status",
          "type": "uint8"
        }
      ],
      "stateMutability": "view",
      "type": "function"
    },
    {
      "inputs": [
        {
          "internalType": "uint256",
          "name": "_campaignId",
          "type": "uint256"
        }
      ],
      "name": "canCompleteCampaign",
      "outputs": [
        {
          "internalType": "bool",
          "name": "",
          "type": "bool"
        }
      ],
      "stateMutability": "view",
      "type": "function"
    },
    {
      "inputs": [
        {
          "internalType": "uint256",
          "name": "_campaignId",
          "type": "uint256"
        }
      ],
      "name": "canWithdrawFunds",
      "outputs": [
        {
          "internalType": "bool",
          "name": "",
          "type": "bool"
        }
      ],
      "stateMutability": "view",
      "type": "function"
    },
    {
      "inputs": [
        {
          "internalType": "uint256",
          "name": "_campaignId",
          "type": "uint256"
        }
      ],
      "name": "completeCampaign",
      "outputs": [],
      "stateMutability": "nonpayable",
      "type": "function"
    },
    {
      "inputs": [
        {
          "internalType": "string",
          "name": "title",
          "type": "string"
        },
        {
          "internalType": "string",
          "name": "description",
          "type": "string"
        },
        {
          "internalType": "uint256",
          "name": "goalInWei",
          "type": "uint256"
        },
        {
          "internalType": "uint256",
          "name": "durationInDays",
          "type": "uint256"
        },
        {
          "internalType": "string",
          "name": "image",
          "type": "string"
        },
        {
          "internalType": "bool",
          "name": "autoComplete",
          "type": "bool"
        }
      ],
      "name": "createCampaign",
      "outputs": [],
      "stateMutability": "nonpayable",
      "type": "function"
    },
    {
      "inputs": [
        {
          "internalType": "uint256",
          "name": "_campaignId",
          "type": "uint256"
        },
        {
          "internalType": "string",
          "name": "_message",
          "type": "string"
        }
      ],
      "name": "donate",
      "outputs": [],
      "stateMutability": "payable",
      "type": "function"
    },
    {
      "inputs": [
        {
          "internalType": "address",
          "name": "",
          "type": "address"
        },
        {
          "internalType": "uint256",
          "name": "",
          "type": "uint256"
        }
      ],
      "name": "donations",
      "outputs": [
        {
          "internalType": "uint256",
          "name": "",
          "type": "uint256"
        }
      ],
      "stateMutability": "view",
      "type": "function"
    },
    {
      "inputs": [
        {
          "internalType": "uint256",
          "name": "_campaignId",
          "type": "uint256"
        }
      ],
      "name": "getCampaign",
      "outputs": [
        {
          "components": [
            {
              "internalType": "address payable",
              "name": "owner",
              "type": "address"
            },
            {
              "internalType": "string",
              "name": "title",
              "type": "string"
            },
            {
              "internalType": "string",
              "name": "description",
              "type": "string"
            },
            {
              "internalType": "string",
              "name": "image",
              "type": "string"
            },
            {
              "internalType": "uint256",
              "name": "goal",
              "type": "uint256"
            },
            {
              "internalType": "uint256",
              "name": "deadline",
              "type": "uint256"
            },
            {
              "internalType": "uint256",
              "name": "balance",
              "type": "uint256"
            },
            {
              "internalType": "bool",
              "name": "completed",
              "type": "bool"
            },
            {
              "internalType": "bool",
              "name": "autoComplete",
              "type": "bool"
            },
            {
              "internalType": "enum CryptoFundraiser.Status",
              "name": "status",
              "type": "uint8"
            }
          ],
          "internalType": "struct CryptoFundraiser.Campaign",
          "name": "",
          "type": "tuple"
        }
      ],
      "stateMutability": "view",
      "type": "function"
    },
    {
      "inputs": [
        {
          "internalType": "uint256",
          "name": "_campaignId",
          "type": "uint256"
        }
      ],
      "name": "getCampaignStatus",
      "outputs": [
        {
          "internalType": "enum CryptoFundraiser.Status",
          "name": "",
          "type": "uint8"
        }
      ],
      "stateMutability": "view",
      "type": "function"
    },
    {
      "inputs": [],
      "name": "getCampaigns",
      "outputs": [
        {
          "components": [
            {
              "internalType": "address payable",
              "name": "owner",
              "type": "address"
            },
            {
              "internalType": "string",
              "name": "title",
              "type": "string"
            },
            {
              "internalType": "string",
              "name": "description",
              "type": "string"
            },
            {
              "internalType": "string",
              "name": "image",
              "type": "string"
            },
            {
              "internalType": "uint256",
              "name": "goal",
              "type": "uint256"
            },
            {
              "internalType": "uint256",
              "name": "deadline",
              "type": "uint256"
            },
            {
              "internalType": "uint256",
              "name": "balance",
              "type": "uint256"
            },
            {
              "internalType": "bool",
              "name": "completed",
              "type": "bool"
            },
            {
              "internalType": "bool",
              "name": "autoComplete",
              "type": "bool"
            },
            {
              "internalType": "enum CryptoFundraiser.Status",
              "name": "status",
              "type": "uint8"
            }
          ],
          "internalType": "struct CryptoFundraiser.Campaign[]",
          "name": "",
          "type": "tuple[]"
        }
      ],
      "stateMutability": "view",
      "type": "function"
    },
    {
      "inputs": [
        {
          "internalType": "address",
          "name": "_donor",
          "type": "address"
        }
      ],
      "name": "getDonations",
      "outputs": [
        {
          "internalType": "uint256[]",
          "name": "",
          "type": "uint256[]"
        }
      ],
      "stateMutability": "view",
      "type": "function"
    },
    {
      "inputs": [
        {
          "internalType": "uint256",
          "name": "_campaignId",
          "type": "uint256"
        }
      ],
      "name": "refund",
      "outputs": [],
      "stateMutability": "nonpayable",
      "type": "function"
    },
    {
      "inputs": [
        {
          "internalType": "uint256",
          "name": "_campaignId",
          "type": "uint256"
        }
      ],
      "name": "withdrawFunds",
      "outputs": [],
      "stateMutability": "nonpayable",
      "type": "function"
    }
  ],
  "bytecode": "0x6080604052600060015534801561001557600080fd5b5061375d806100256000396000f3fe6080604052600436106100dd5760003560e01c80638d59d1f11161007f5780639ad49bf8116100595780639ad49bf8146102de578063a6b036331461031b578063ce9974b914610346578063f5a1857514610383576100dd565b80638d59d1f11461025c57806395086ed1146102785780639553f180146102b5576100dd565b8063278ecde1116100bb578063278ecde11461018e5780635598f8cc146101b75780636c19e004146101f45780637274e30d14610231576100dd565b8063141961bc146100e2578063155dd5ee146101285780631910bdc214610151575b600080fd5b3480156100ee57600080fd5b5061010960048036038101906101049190612020565b6103ac565b60405161011f9a999897969594939291906121bf565b60405180910390f35b34801561013457600080fd5b5061014f600480360381019061014a9190612020565b6105df565b005b34801561015d57600080fd5b50610178600480360381019061017391906122ae565b6108a4565b6040516101859190612399565b60405180910390f35b34801561019a57600080fd5b506101b560048036038101906101b09190612020565b61098f565b005b3480156101c357600080fd5b506101de60048036038101906101d99190612020565b610c90565b6040516101eb919061251a565b60405180910390f35b34801561020057600080fd5b5061021b60048036038101906102169190612020565b610f70565b604051610228919061253c565b60405180910390f35b34801561023d57600080fd5b50610246611035565b6040516102539190612557565b60405180910390f35b610276600480360381019061027191906126a7565b61103b565b005b34801561028457600080fd5b5061029f600480360381019061029a9190612703565b6112ec565b6040516102ac9190612557565b60405180910390f35b3480156102c157600080fd5b506102dc60048036038101906102d79190612020565b611311565b005b3480156102ea57600080fd5b5061030560048036038101906103009190612020565b6114a4565b6040516103129190612743565b60405180910390f35b34801561032757600080fd5b506103306115ec565b60405161033d9190612908565b60405180910390f35b34801561035257600080fd5b5061036d60048036038101906103689190612020565b61191b565b60405161037a9190612743565b60405180910390f35b34801561038f57600080fd5b506103aa60048036038101906103a59190612956565b611a33565b005b60006020528060005260406000206000915090508060000160009054906101000a900473ffffffffffffffffffffffffffffffffffffffff16908060010180546103f590612a66565b80601f016020809104026020016040519081016040528092919081815260200182805461042190612a66565b801561046e5780601f106104435761010080835404028352916020019161046e565b820191906000526020600020905b81548152906001019060200180831161045157829003601f168201915b50505050509080600201805461048390612a66565b80601f01602080910402602001604051908101604052809291908181526020018280546104af90612a66565b80156104fc5780601f106104d1576101008083540402835291602001916104fc565b820191906000526020600020905b8154815290600101906020018083116104df57829003601f168201915b50505050509080600301805461051190612a66565b80601f016020809104026020016040519081016040528092919081815260200182805461053d90612a66565b801561058a5780601f1061055f5761010080835404028352916020019161058a565b820191906000526020600020905b81548152906001019060200180831161056d57829003601f168201915b5050505050908060040154908060050154908060060154908060070160009054906101000a900460ff16908060070160019054906101000a900460ff16908060070160029054906101000a900460ff1690508a565b6001548110610623576040517f08c379a000000000000000000000000000000000000000000000000000000000815260040161061a90612ae3565b60405180910390fd5b600080600083815260200190815260200160002090508060070160009054906101000a900460ff1661068a576040517f08c379a000000000000000000000000000000000000000000000000000000000815260040161068190612b4f565b60405180910390fd5b8060000160009054906101000a900473ffffffffffffffffffffffffffffffffffffffff1673ffffffffffffffffffffffffffffffffffffffff163373ffffffffffffffffffffffffffffffffffffffff161461071c576040517f08c379a000000000000000000000000000000000000000000000000000000000815260040161071390612bbb565b60405180910390fd5b6000816006015411610763576040517f08c379a000000000000000000000000000000000000000000000000000000000815260040161075a90612c27565b60405180910390fd5b8060040154816006015410156107ae576040517f08c379a00000000000000000000000000000000000000000000000000000000081526004016107a590612c93565b60405180910390fd5b600081600601549050600082600601819055508160000160009054906101000a900473ffffffffffffffffffffffffffffffffffffffff1673ffffffffffffffffffffffffffffffffffffffff166108fc829081150290604051600060405180830381858888f1935050505015801561082b573d6000803e3d6000fd5b508160000160009054906101000a900473ffffffffffffffffffffffffffffffffffffffff1673ffffffffffffffffffffffffffffffffffffffff16837ff440aec6b52895984d061d622e6edeba6210f7c3e059be920663140c084560d7836040516108979190612557565b60405180910390a3505050565b6060600060015467ffffffffffffffff8111156108c4576108c361257c565b5b6040519080825280602002602001820160405280156108f25781602001602082028036833780820191505090505b50905060005b60015481101561098557600260008573ffffffffffffffffffffffffffffffffffffffff1673ffffffffffffffffffffffffffffffffffffffff16815260200190815260200160002060008281526020019081526020016000205482828151811061096657610965612cb3565b5b602002602001018181525050808061097d90612d11565b9150506108f8565b5080915050919050565b60015481106109d3576040517f08c379a00000000000000000000000000000000000000000000000000000000081526004016109ca90612ae3565b60405180910390fd5b600080600083815260200190815260200160002090508060050154421015610a30576040517f08c379a0000000000000000000000000000000000000000000000000000000008152600401610a2790612da5565b60405180910390fd5b8060040154816006015410610a7a576040517f08c379a0000000000000000000000000000000000000000000000000000000008152600401610a7190612e11565b60405180910390fd5b8060070160009054906101000a900460ff1615610acc576040517f08c379a0000000000000000000000000000000000000000000000000000000008152600401610ac390612e7d565b60405180910390fd5b60016002811115610ae057610adf612148565b5b610ae983610f70565b6002811115610afb57610afa612148565b5b03610b3b576040517f08c379a0000000000000000000000000000000000000000000000000000000008152600401610b3290612ee9565b60405180910390fd5b6000600260003373ffffffffffffffffffffffffffffffffffffffff1673ffffffffffffffffffffffffffffffffffffffff168152602001908152602001600020600084815260200190815260200160002054905060008111610bd3576040517f08c379a0000000000000000000000000000000000000000000000000000000008152600401610bca90612f55565b60405180910390fd5b6000600260003373ffffffffffffffffffffffffffffffffffffffff1673ffffffffffffffffffffffffffffffffffffffff16815260200190815260200160002060008581526020019081526020016000208190555080826006016000828254610c3d9190612f75565b925050819055503373ffffffffffffffffffffffffffffffffffffffff166108fc829081150290604051600060405180830381858888f19350505050158015610c8a573d6000803e3d6000fd5b50505050565b610c98611f57565b6001548210610cdc576040517f08c379a0000000000000000000000000000000000000000000000000000000008152600401610cd390612ae3565b60405180910390fd5b600080600084815260200190815260200160002090506000610cfd84610f70565b90506040518061014001604052808360000160009054906101000a900473ffffffffffffffffffffffffffffffffffffffff1673ffffffffffffffffffffffffffffffffffffffff168152602001836001018054610d5a90612a66565b80601f0160208091040260200160405190810160405280929190818152602001828054610d8690612a66565b8015610dd35780601f10610da857610100808354040283529160200191610dd3565b820191906000526020600020905b815481529060010190602001808311610db657829003601f168201915b50505050508152602001836002018054610dec90612a66565b80601f0160208091040260200160405190810160405280929190818152602001828054610e1890612a66565b8015610e655780601f10610e3a57610100808354040283529160200191610e65565b820191906000526020600020905b815481529060010190602001808311610e4857829003601f168201915b50505050508152602001836003018054610e7e90612a66565b80601f0160208091040260200160405190810160405280929190818152602001828054610eaa90612a66565b8015610ef75780601f10610ecc57610100808354040283529160200191610ef7565b820191906000526020600020905b815481529060010190602001808311610eda57829003601f168201915b505050505081526020018360040154815260200183600501548152602001836006015481526020018360070160009054906101000a900460ff16151581526020018360070160019054906101000a900460ff1615158152602001826002811115610f6457610f63612148565b5b81525092505050919050565b60006001548210610fb6576040517f08c379a0000000000000000000000000000000000000000000000000000000008152600401610fad90612ae3565b60405180910390fd5b600080600084815260200190815260200160002090508060070160009054906101000a900460ff1615610ffd578060070160029054906101000a900460ff16915050611030565b8060050154421061102a5780600401548160060154101561101f576002611022565b60015b915050611030565b60009150505b919050565b60015481565b600154821061107f576040517f08c379a000000000000000000000000000000000000000000000000000000000815260040161107690612ae3565b60405180910390fd5b60008060008481526020019081526020016000209050806005015442106110db576040517f08c379a00000000000000000000000000000000000000000000000000000000081526004016110d290612ff5565b60405180910390fd5b8060070160009054906101000a900460ff161561112d576040517f08c379a000000000000000000000000000000000000000000000000000000000815260040161112490612e7d565b60405180910390fd5b60003411611170576040517f08c379a000000000000000000000000000000000000000000000000000000000815260040161116790613061565b60405180910390fd5b6000600281111561118457611183612148565b5b61118d84610f70565b600281111561119f5761119e612148565b5b146111df576040517f08c379a00000000000000000000000000000000000000000000000000000000081526004016111d6906130cd565b60405180910390fd5b348160060160008282546111f391906130ed565b9250508190555034600260003373ffffffffffffffffffffffffffffffffffffffff1673ffffffffffffffffffffffffffffffffffffffff1681526020019081526020016000206000858152602001908152602001600020600082825461125a91906130ed565b925050819055503373ffffffffffffffffffffffffffffffffffffffff16837f3f82cd807839db80f9937063f26a2146e11e161b89613f94f6972cae64ea2e6434856040516112aa929190613121565b60405180910390a38060070160019054906101000a900460ff1680156112d857508060040154816006015410155b156112e7576112e683611d7e565b5b505050565b6002602052816000526040600020602052806000526040600020600091509150505481565b6001548110611355576040517f08c379a000000000000000000000000000000000000000000000000000000000815260040161134c90612ae3565b60405180910390fd5b600080600083815260200190815260200160002090508060000160009054906101000a900473ffffffffffffffffffffffffffffffffffffffff1673ffffffffffffffffffffffffffffffffffffffff163373ffffffffffffffffffffffffffffffffffffffff16146113fd576040517f08c379a00000000000000000000000000000000000000000000000000000000081526004016113f4906131c3565b60405180910390fd5b611406826114a4565b611445576040517f08c379a000000000000000000000000000000000000000000000000000000000815260040161143c9061322f565b60405180910390fd5b8060070160009054906101000a900460ff1615611497576040517f08c379a000000000000000000000000000000000000000000000000000000000815260040161148e90612e7d565b60405180910390fd5b6114a082611d7e565b5050565b600060015482106114ea576040517f08c379a00000000000000000000000000000000000000000000000000000000081526004016114e190612ae3565b60405180910390fd5b600080600084815260200190815260200160002090508060070160009054906101000a900460ff16156115215760009150506115e7565b8060070160019054906101000a900460ff16801561154757508060040154816006015410155b156115565760019150506115e7565b8060050154421061156b5760019150506115e7565b80600401548160060154101580156115d257508060000160009054906101000a900473ffffffffffffffffffffffffffffffffffffffff1673ffffffffffffffffffffffffffffffffffffffff163373ffffffffffffffffffffffffffffffffffffffff16145b156115e15760019150506115e7565b60009150505b919050565b6060600060015467ffffffffffffffff81111561160c5761160b61257c565b5b60405190808252806020026020018201604052801561164557816020015b611632611f57565b81526020019060019003908161162a5790505b50905060005b6001548110156119135760008060008381526020019081526020016000209050600061167683610f70565b90506040518061014001604052808360000160009054906101000a900473ffffffffffffffffffffffffffffffffffffffff1673ffffffffffffffffffffffffffffffffffffffff1681526020018360010180546116d390612a66565b80601f01602080910402602001604051908101604052809291908181526020018280546116ff90612a66565b801561174c5780601f106117215761010080835404028352916020019161174c565b820191906000526020600020905b81548152906001019060200180831161172f57829003601f168201915b5050505050815260200183600201805461176590612a66565b80601f016020809104026020016040519081016040528092919081815260200182805461179190612a66565b80156117de5780601f106117b3576101008083540402835291602001916117de565b820191906000526020600020905b8154815290600101906020018083116117c157829003601f168201915b505050505081526020018360030180546117f790612a66565b80601f016020809104026020016040519081016040528092919081815260200182805461182390612a66565b80156118705780601f1061184557610100808354040283529160200191611870565b820191906000526020600020905b81548152906001019060200180831161185357829003601f168201915b505050505081526020018360040154815260200183600501548152602001836006015481526020018360070160009054906101000a900460ff16151581526020018360070160019054906101000a900460ff16151581526020018260028111156118dd576118dc612148565b5b8152508484815181106118f3576118f2612cb3565b5b60200260200101819052505050808061190b90612d11565b91505061164b565b508091505090565b60006001548210611961576040517f08c379a000000000000000000000000000000000000000000000000000000000815260040161195890612ae3565b60405180910390fd5b600080600084815260200190815260200160002090508060070160009054906101000a900460ff16611997576000915050611a2e565b8060000160009054906101000a900473ffffffffffffffffffffffffffffffffffffffff1673ffffffffffffffffffffffffffffffffffffffff163373ffffffffffffffffffffffffffffffffffffffff16146119f8576000915050611a2e565b6000816006015403611a0e576000915050611a2e565b806004015481600601541015611a28576000915050611a2e565b60019150505b919050565b60008411611a76576040517f08c379a0000000000000000000000000000000000000000000000000000000008152600401611a6d9061329b565b60405180910390fd5b60008311611ab9576040517f08c379a0000000000000000000000000000000000000000000000000000000008152600401611ab090613307565b60405180910390fd5b6000865111611afd576040517f08c379a0000000000000000000000000000000000000000000000000000000008152600401611af490613373565b60405180910390fd5b6000855111611b41576040517f08c379a0000000000000000000000000000000000000000000000000000000008152600401611b38906133df565b60405180910390fd5b60006201518084611b5291906133ff565b42611b5d91906130ed565b90506040518061014001604052803373ffffffffffffffffffffffffffffffffffffffff16815260200188815260200187815260200184815260200186815260200182815260200160008152602001600015158152602001831515815260200160006002811115611bd157611bd0612148565b5b815250600080600154815260200190815260200160002060008201518160000160006101000a81548173ffffffffffffffffffffffffffffffffffffffff021916908373ffffffffffffffffffffffffffffffffffffffff1602179055506020820151816001019081611c4491906135ed565b506040820151816002019081611c5a91906135ed565b506060820151816003019081611c7091906135ed565b506080820151816004015560a0820151816005015560c0820151816006015560e08201518160070160006101000a81548160ff0219169083151502179055506101008201518160070160016101000a81548160ff0219169083151502179055506101208201518160070160026101000a81548160ff02191690836002811115611cfc57611cfb612148565b5b02179055509050503373ffffffffffffffffffffffffffffffffffffffff166001547f2cb04f56996beb67c0ab27012deb0e8e96941f5daf9c0e52abab9055849c1af58989878a87604051611d559594939291906136bf565b60405180910390a360016000815480929190611d7090612d11565b919050555050505050505050565b600080600083815260200190815260200160002090508060070160009054906101000a900460ff1615611de6576040517f08c379a0000000000000000000000000000000000000000000000000000000008152600401611ddd90612e7d565b60405180910390fd5b60018160070160006101000a81548160ff0219169083151502179055508060040154816006015410611eec5760018160070160026101000a81548160ff02191690836002811115611e3a57611e39612148565b5b02179055508060000160009054906101000a900473ffffffffffffffffffffffffffffffffffffffff1673ffffffffffffffffffffffffffffffffffffffff166108fc82600601549081150290604051600060405180830381858888f19350505050158015611ead573d6000803e3d6000fd5b50817fe6d0944fb38eed88304b3297b4a965f4083297985b33a32d6138aba64c0db9386001604051611edf9190612743565b60405180910390a2611f53565b60028160070160026101000a81548160ff02191690836002811115611f1457611f13612148565b5b0217905550817fe6d0944fb38eed88304b3297b4a965f4083297985b33a32d6138aba64c0db9386000604051611f4a9190612743565b60405180910390a25b5050565b604051806101400160405280600073ffffffffffffffffffffffffffffffffffffffff16815260200160608152602001606081526020016060815260200160008152602001600081526020016000815260200160001515815260200160001515815260200160006002811115611fd057611fcf612148565b5b81525090565b6000604051905090565b600080fd5b600080fd5b6000819050919050565b611ffd81611fea565b811461200857600080fd5b50565b60008135905061201a81611ff4565b92915050565b60006020828403121561203657612035611fe0565b5b60006120448482850161200b565b91505092915050565b600073ffffffffffffffffffffffffffffffffffffffff82169050919050565b60006120788261204d565b9050919050565b6120888161206d565b82525050565b600081519050919050565b600082825260208201905092915050565b60005b838110156120c85780820151818401526020810190506120ad565b60008484015250505050565b6000601f19601f8301169050919050565b60006120f08261208e565b6120fa8185612099565b935061210a8185602086016120aa565b612113816120d4565b840191505092915050565b61212781611fea565b82525050565b60008115159050919050565b6121428161212d565b82525050565b7f4e487b7100000000000000000000000000000000000000000000000000000000600052602160045260246000fd5b6003811061218857612187612148565b5b50565b600081905061219982612177565b919050565b60006121a98261218b565b9050919050565b6121b98161219e565b82525050565b6000610140820190506121d5600083018d61207f565b81810360208301526121e7818c6120e5565b905081810360408301526121fb818b6120e5565b9050818103606083015261220f818a6120e5565b905061221e608083018961211e565b61222b60a083018861211e565b61223860c083018761211e565b61224560e0830186612139565b612253610100830185612139565b6122616101208301846121b0565b9b9a5050505050505050505050565b600061227b8261204d565b9050919050565b61228b81612270565b811461229657600080fd5b50565b6000813590506122a881612282565b92915050565b6000602082840312156122c4576122c3611fe0565b5b60006122d284828501612299565b91505092915050565b600081519050919050565b600082825260208201905092915050565b6000819050602082019050919050565b61231081611fea565b82525050565b60006123228383612307565b60208301905092915050565b6000602082019050919050565b6000612346826122db565b61235081856122e6565b935061235b836122f7565b8060005b8381101561238c5781516123738882612316565b975061237e8361232e565b92505060018101905061235f565b5085935050505092915050565b600060208201905081810360008301526123b3818461233b565b905092915050565b6123c48161206d565b82525050565b600082825260208201905092915050565b60006123e68261208e565b6123f081856123ca565b93506124008185602086016120aa565b612409816120d4565b840191505092915050565b61241d8161212d565b82525050565b61242c8161219e565b82525050565b60006101408301600083015161244b60008601826123bb565b506020830151848203602086015261246382826123db565b9150506040830151848203604086015261247d82826123db565b9150506060830151848203606086015261249782826123db565b91505060808301516124ac6080860182612307565b5060a08301516124bf60a0860182612307565b5060c08301516124d260c0860182612307565b5060e08301516124e560e0860182612414565b506101008301516124fa610100860182612414565b5061012083015161250f610120860182612423565b508091505092915050565b600060208201905081810360008301526125348184612432565b905092915050565b600060208201905061255160008301846121b0565b92915050565b600060208201905061256c600083018461211e565b92915050565b600080fd5b600080fd5b7f4e487b7100000000000000000000000000000000000000000000000000000000600052604160045260246000fd5b6125b4826120d4565b810181811067ffffffffffffffff821117156125d3576125d261257c565b5b80604052505050565b60006125e6611fd6565b90506125f282826125ab565b919050565b600067ffffffffffffffff8211156126125761261161257c565b5b61261b826120d4565b9050602081019050919050565b82818337600083830152505050565b600061264a612645846125f7565b6125dc565b90508281526020810184848401111561266657612665612577565b5b612671848285612628565b509392505050565b600082601f83011261268e5761268d612572565b5b813561269e848260208601612637565b91505092915050565b600080604083850312156126be576126bd611fe0565b5b60006126cc8582860161200b565b925050602083013567ffffffffffffffff8111156126ed576126ec611fe5565b5b6126f985828601612679565b9150509250929050565b6000806040838503121561271a57612719611fe0565b5b600061272885828601612299565b92505060206127398582860161200b565b9150509250929050565b60006020820190506127586000830184612139565b92915050565b600081519050919050565b600082825260208201905092915050565b6000819050602082019050919050565b6000610140830160008301516127a360008601826123bb565b50602083015184820360208601526127bb82826123db565b915050604083015184820360408601526127d582826123db565b915050606083015184820360608601526127ef82826123db565b91505060808301516128046080860182612307565b5060a083015161281760a0860182612307565b5060c083015161282a60c0860182612307565b5060e083015161283d60e0860182612414565b50610100830151612852610100860182612414565b50610120830151612867610120860182612423565b508091505092915050565b600061287e838361278a565b905092915050565b6000602082019050919050565b600061289e8261275e565b6128a88185612769565b9350836020820285016128ba8561277a565b8060005b858110156128f657848403895281516128d78582612872565b94506128e283612886565b925060208a019950506001810190506128be565b50829750879550505050505092915050565b600060208201905081810360008301526129228184612893565b905092915050565b6129338161212d565b811461293e57600080fd5b50565b6000813590506129508161292a565b92915050565b60008060008060008060c0878903121561297357612972611fe0565b5b600087013567ffffffffffffffff81111561299157612990611fe5565b5b61299d89828a01612679565b965050602087013567ffffffffffffffff8111156129be576129bd611fe5565b5b6129ca89828a01612679565b95505060406129db89828a0161200b565b94505060606129ec89828a0161200b565b935050608087013567ffffffffffffffff811115612a0d57612a0c611fe5565b5b612a1989828a01612679565b92505060a0612a2a89828a01612941565b9150509295509295509295565b7f4e487b7100000000000000000000000000000000000000000000000000000000600052602260045260246000fd5b60006002820490506001821680612a7e57607f821691505b602082108103612a9157612a90612a37565b5b50919050565b7f43616d706169676e20646f6573206e6f74206578697374000000000000000000600082015250565b6000612acd601783612099565b9150612ad882612a97565b602082019050919050565b60006020820190508181036000830152612afc81612ac0565b9050919050565b7f43616d706169676e206973206e6f7420636f6d706c6574656400000000000000600082015250565b6000612b39601983612099565b9150612b4482612b03565b602082019050919050565b60006020820190508181036000830152612b6881612b2c565b9050919050565b7f4f6e6c79206f776e65722063616e2077697468647261772066756e6473000000600082015250565b6000612ba5601d83612099565b9150612bb082612b6f565b602082019050919050565b60006020820190508181036000830152612bd481612b98565b9050919050565b7f4e6f2066756e647320746f207769746864726177000000000000000000000000600082015250565b6000612c11601483612099565b9150612c1c82612bdb565b602082019050919050565b60006020820190508181036000830152612c4081612c04565b9050919050565b7f43616d706169676e20646964206e6f742072656163682069747320676f616c00600082015250565b6000612c7d601f83612099565b9150612c8882612c47565b602082019050919050565b60006020820190508181036000830152612cac81612c70565b9050919050565b7f4e487b7100000000000000000000000000000000000000000000000000000000600052603260045260246000fd5b7f4e487b7100000000000000000000000000000000000000000000000000000000600052601160045260246000fd5b6000612d1c82611fea565b91507fffffffffffffffffffffffffffffffffffffffffffffffffffffffffffffffff8203612d4e57612d4d612ce2565b5b600182019050919050565b7f43616d706169676e206973207374696c6c206163746976650000000000000000600082015250565b6000612d8f601883612099565b9150612d9a82612d59565b602082019050919050565b60006020820190508181036000830152612dbe81612d82565b9050919050565b7f43616d706169676e20726561636865642069747320676f616c00000000000000600082015250565b6000612dfb601983612099565b9150612e0682612dc5565b602082019050919050565b60006020820190508181036000830152612e2a81612dee565b9050919050565b7f43616d706169676e20697320616c726561647920636f6d706c65746564000000600082015250565b6000612e67601d83612099565b9150612e7282612e31565b602082019050919050565b60006020820190508181036000830152612e9681612e5a565b9050919050565b7f43616e6e6f7420726566756e6420636f6d706c657465642063616d706169676e600082015250565b6000612ed3602083612099565b9150612ede82612e9d565b602082019050919050565b60006020820190508181036000830152612f0281612ec6565b9050919050565b7f596f752068617665206e6f20646f6e6174696f6e7320746f20726566756e6400600082015250565b6000612f3f601f83612099565b9150612f4a82612f09565b602082019050919050565b60006020820190508181036000830152612f6e81612f32565b9050919050565b6000612f8082611fea565b9150612f8b83611fea565b9250828203905081811115612fa357612fa2612ce2565b5b92915050565b7f43616d706169676e2068617320656e6465640000000000000000000000000000600082015250565b6000612fdf601283612099565b9150612fea82612fa9565b602082019050919050565b6000602082019050818103600083015261300e81612fd2565b9050919050565b7f446f6e6174696f6e206d7573742062652067726561746572207468616e203000600082015250565b600061304b601f83612099565b915061305682613015565b602082019050919050565b6000602082019050818103600083015261307a8161303e565b9050919050565b7f43616d706169676e206973206e6f742061637469766500000000000000000000600082015250565b60006130b7601683612099565b91506130c282613081565b602082019050919050565b600060208201905081810360008301526130e6816130aa565b9050919050565b60006130f882611fea565b915061310383611fea565b925082820190508082111561311b5761311a612ce2565b5b92915050565b6000604082019050613136600083018561211e565b818103602083015261314881846120e5565b90509392505050565b7f4f6e6c79206f776e65722063616e20636f6d706c657465207468652063616d7060008201527f6169676e00000000000000000000000000000000000000000000000000000000602082015250565b60006131ad602483612099565b91506131b882613151565b604082019050919050565b600060208201905081810360008301526131dc816131a0565b9050919050565b7f43616d706169676e2063616e6e6f7420626520636f6d706c6574656420796574600082015250565b6000613219602083612099565b9150613224826131e3565b602082019050919050565b600060208201905081810360008301526132488161320c565b9050919050565b7f476f616c206d7573742062652067726561746572207468616e20300000000000600082015250565b6000613285601b83612099565b91506132908261324f565b602082019050919050565b600060208201905081810360008301526132b481613278565b9050919050565b7f4475726174696f6e206d7573742062652067726561746572207468616e203000600082015250565b60006132f1601f83612099565b91506132fc826132bb565b602082019050919050565b60006020820190508181036000830152613320816132e4565b9050919050565b7f5469746c652063616e6e6f7420626520656d7074790000000000000000000000600082015250565b600061335d601583612099565b915061336882613327565b602082019050919050565b6000602082019050818103600083015261338c81613350565b9050919050565b7f4465736372697074696f6e2063616e6e6f7420626520656d7074790000000000600082015250565b60006133c9601b83612099565b91506133d482613393565b602082019050919050565b600060208201905081810360008301526133f8816133bc565b9050919050565b600061340a82611fea565b915061341583611fea565b925082820261342381611fea565b9150828204841483151761343a57613439612ce2565b5b5092915050565b60008190508160005260206000209050919050565b60006020601f8301049050919050565b600082821b905092915050565b6000600883026134a37fffffffffffffffffffffffffffffffffffffffffffffffffffffffffffffffff82613466565b6134ad8683613466565b95508019841693508086168417925050509392505050565b6000819050919050565b60006134ea6134e56134e084611fea565b6134c5565b611fea565b9050919050565b6000819050919050565b613504836134cf565b613518613510826134f1565b848454613473565b825550505050565b600090565b61352d613520565b6135388184846134fb565b505050565b5b8181101561355c57613551600082613525565b60018101905061353e565b5050565b601f8211156135a15761357281613441565b61357b84613456565b8101602085101561358a578190505b61359e61359685613456565b83018261353d565b50505b505050565b600082821c905092915050565b60006135c4600019846008026135a6565b1980831691505092915050565b60006135dd83836135b3565b9150826002028217905092915050565b6135f68261208e565b67ffffffffffffffff81111561360f5761360e61257c565b5b6136198254612a66565b613624828285613560565b600060209050601f8311600181146136575760008415613645578287015190505b61364f85826135d1565b8655506136b7565b601f19841661366586613441565b60005b8281101561368d57848901518255600182019150602085019450602081019050613668565b868310156136aa57848901516136a6601f8916826135b3565b8355505b6001600288020188555050505b505050505050565b600060a08201905081810360008301526136d981886120e5565b905081810360208301526136ed81876120e5565b9050818103604083015261370181866120e5565b9050613710606083018561211e565b61371d608083018461211e565b969550505050505056fea26469706673582212207b2e835006218e0fa359bd7e890bb074acca1549aef8937bba5ec22becd4906564736f6c63430008130033",
  "linkReferences": {},
  "deployedLinkReferences": {}
}