{
  "_format": "hh-sol-artifact-1",
  "contractName": "CryptoFundraiser",
  "sourceName": "contracts/CryptoFundraiser.sol",
  "abi": [
    {
      "anonymous": false,
      "inputs": [
        {
          "indexed": true,
          "internalType": "uint256",
          "name": "campaignId",
          "type": "uint256"
        },
        {
          "indexed": false,
          "internalType": "bool",
          "name": "successful",
          "type": "bool"
        }
      ],
      "name": "CampaignCompleted",
      "type": "event"
    },
    {
      "anonymous": false,
      "inputs": [
        {
          "indexed": true,
          "internalType": "uint256",
          "name": "campaignId",
          "type": "uint256"
        },
        {
          "indexed": true,
          "internalType": "address",
          "name": "owner",
          "type": "address"
        },
        {
          "indexed": false,
          "internalType": "string",
          "name": "title",
          "type": "string"
        },
        {
          "indexed": false,
          "internalType": "string",
          "name": "description",
          "type": "string"
        },
        {
          "indexed": false,
          "internalType": "string",
          "name": "image",
          "type": "string"
        },
        {
          "indexed": false,
          "internalType": "uint256",
          "name": "goal",
          "type": "uint256"
        },
        {
          "indexed": false,
          "internalType": "uint256",
          "name": "deadline",
          "type": "uint256"
        }
      ],
      "name": "CampaignCreated",
      "type": "event"
    },
    {
      "anonymous": false,
      "inputs": [
        {
          "indexed": true,
          "internalType": "uint256",
          "name": "campaignId",
          "type": "uint256"
        },
        {
          "indexed": true,
          "internalType": "address",
          "name": "donor",
          "type": "address"
        },
        {
          "indexed": false,
          "internalType": "uint256",
          "name": "amount",
          "type": "uint256"
        }
      ],
      "name": "DonationReceived",
      "type": "event"
    },
    {
      "inputs": [],
      "name": "campaignCount",
      "outputs": [
        {
          "internalType": "uint256",
          "name": "",
          "type": "uint256"
        }
      ],
      "stateMutability": "view",
      "type": "function"
    },
    {
      "inputs": [
        {
          "internalType": "uint256",
          "name": "",
          "type": "uint256"
        }
      ],
      "name": "campaigns",
      "outputs": [
        {
          "internalType": "address payable",
          "name": "owner",
          "type": "address"
        },
        {
          "internalType": "string",
          "name": "title",
          "type": "string"
        },
        {
          "internalType": "string",
          "name": "description",
          "type": "string"
        },
        {
          "internalType": "string",
          "name": "image",
          "type": "string"
        },
        {
          "internalType": "uint256",
          "name": "goal",
          "type": "uint256"
        },
        {
          "internalType": "uint256",
          "name": "deadline",
          "type": "uint256"
        },
        {
          "internalType": "uint256",
          "name": "balance",
          "type": "uint256"
        },
        {
          "internalType": "bool",
          "name": "completed",
          "type": "bool"
        }
      ],
      "stateMutability": "view",
      "type": "function"
    },
    {
      "inputs": [
        {
          "internalType": "uint256",
          "name": "_campaignId",
          "type": "uint256"
        }
      ],
      "name": "completeCampaign",
      "outputs": [],
      "stateMutability": "nonpayable",
      "type": "function"
    },
    {
      "inputs": [
        {
          "internalType": "string",
          "name": "title",
          "type": "string"
        },
        {
          "internalType": "string",
          "name": "description",
          "type": "string"
        },
        {
          "internalType": "uint256",
          "name": "goalInWei",
          "type": "uint256"
        },
        {
          "internalType": "uint256",
          "name": "durationInDays",
          "type": "uint256"
        },
        {
          "internalType": "string",
          "name": "image",
          "type": "string"
        }
      ],
      "name": "createCampaign",
      "outputs": [],
      "stateMutability": "nonpayable",
      "type": "function"
    },
    {
      "inputs": [
        {
          "internalType": "uint256",
          "name": "_campaignId",
          "type": "uint256"
        }
      ],
      "name": "donate",
      "outputs": [],
      "stateMutability": "payable",
      "type": "function"
    },
    {
      "inputs": [
        {
          "internalType": "address",
          "name": "",
          "type": "address"
        },
        {
          "internalType": "uint256",
          "name": "",
          "type": "uint256"
        }
      ],
      "name": "donations",
      "outputs": [
        {
          "internalType": "uint256",
          "name": "",
          "type": "uint256"
        }
      ],
      "stateMutability": "view",
      "type": "function"
    },
    {
      "inputs": [
        {
          "internalType": "uint256",
          "name": "_campaignId",
          "type": "uint256"
        }
      ],
      "name": "getCampaign",
      "outputs": [
        {
          "components": [
            {
              "internalType": "address payable",
              "name": "owner",
              "type": "address"
            },
            {
              "internalType": "string",
              "name": "title",
              "type": "string"
            },
            {
              "internalType": "string",
              "name": "description",
              "type": "string"
            },
            {
              "internalType": "string",
              "name": "image",
              "type": "string"
            },
            {
              "internalType": "uint256",
              "name": "goal",
              "type": "uint256"
            },
            {
              "internalType": "uint256",
              "name": "deadline",
              "type": "uint256"
            },
            {
              "internalType": "uint256",
              "name": "balance",
              "type": "uint256"
            },
            {
              "internalType": "bool",
              "name": "completed",
              "type": "bool"
            }
          ],
          "internalType": "struct CryptoFundraiser.Campaign",
          "name": "",
          "type": "tuple"
        }
      ],
      "stateMutability": "view",
      "type": "function"
    },
    {
      "inputs": [],
      "name": "getCampaigns",
      "outputs": [
        {
          "components": [
            {
              "internalType": "address payable",
              "name": "owner",
              "type": "address"
            },
            {
              "internalType": "string",
              "name": "title",
              "type": "string"
            },
            {
              "internalType": "string",
              "name": "description",
              "type": "string"
            },
            {
              "internalType": "string",
              "name": "image",
              "type": "string"
            },
            {
              "internalType": "uint256",
              "name": "goal",
              "type": "uint256"
            },
            {
              "internalType": "uint256",
              "name": "deadline",
              "type": "uint256"
            },
            {
              "internalType": "uint256",
              "name": "balance",
              "type": "uint256"
            },
            {
              "internalType": "bool",
              "name": "completed",
              "type": "bool"
            }
          ],
          "internalType": "struct CryptoFundraiser.Campaign[]",
          "name": "",
          "type": "tuple[]"
        }
      ],
      "stateMutability": "view",
      "type": "function"
    },
    {
      "inputs": [
        {
          "internalType": "address",
          "name": "_donor",
          "type": "address"
        }
      ],
      "name": "getDonations",
      "outputs": [
        {
          "internalType": "uint256[]",
          "name": "",
          "type": "uint256[]"
        }
      ],
      "stateMutability": "view",
      "type": "function"
    },
    {
      "inputs": [
        {
          "internalType": "uint256",
          "name": "_campaignId",
          "type": "uint256"
        }
      ],
      "name": "refund",
      "outputs": [],
      "stateMutability": "nonpayable",
      "type": "function"
    }
  ],
  "bytecode": "0x6080604052600060015534801561001557600080fd5b5061282c806100256000396000f3fe6080604052600436106100915760003560e01c806395086ed11161005957806395086ed1146101a85780639553f180146101e5578063a6b036331461020e578063d4e3dd6f14610239578063f14faf6f1461026257610091565b8063141961bc146100965780631910bdc2146100da578063278ecde1146101175780635598f8cc146101405780637274e30d1461017d575b600080fd5b3480156100a257600080fd5b506100bd60048036038101906100b891906115c0565b61027e565b6040516100d19897969594939291906116e8565b60405180910390f35b3480156100e657600080fd5b5061010160048036038101906100fc91906117b9565b61048b565b60405161010e91906118a4565b60405180910390f35b34801561012357600080fd5b5061013e600480360381019061013991906115c0565b610576565b005b34801561014c57600080fd5b50610167600480360381019061016291906115c0565b6107b6565b60405161017491906119ec565b60405180910390f35b34801561018957600080fd5b50610192610a6c565b60405161019f9190611a0e565b60405180910390f35b3480156101b457600080fd5b506101cf60048036038101906101ca9190611a29565b610a72565b6040516101dc9190611a0e565b60405180910390f35b3480156101f157600080fd5b5061020c600480360381019061020791906115c0565b610a97565b005b34801561021a57600080fd5b50610223610d33565b6040516102309190611be9565b60405180910390f35b34801561024557600080fd5b50610260600480360381019061025b9190611d40565b611038565b005b61027c600480360381019061027791906115c0565b61130f565b005b60006020528060005260406000206000915090508060000160009054906101000a900473ffffffffffffffffffffffffffffffffffffffff16908060010180546102c790611e3e565b80601f01602080910402602001604051908101604052809291908181526020018280546102f390611e3e565b80156103405780601f1061031557610100808354040283529160200191610340565b820191906000526020600020905b81548152906001019060200180831161032357829003601f168201915b50505050509080600201805461035590611e3e565b80601f016020809104026020016040519081016040528092919081815260200182805461038190611e3e565b80156103ce5780601f106103a3576101008083540402835291602001916103ce565b820191906000526020600020905b8154815290600101906020018083116103b157829003601f168201915b5050505050908060030180546103e390611e3e565b80601f016020809104026020016040519081016040528092919081815260200182805461040f90611e3e565b801561045c5780601f106104315761010080835404028352916020019161045c565b820191906000526020600020905b81548152906001019060200180831161043f57829003601f168201915b5050505050908060040154908060050154908060060154908060070160009054906101000a900460ff16905088565b6060600060015467ffffffffffffffff8111156104ab576104aa611c15565b5b6040519080825280602002602001820160405280156104d95781602001602082028036833780820191505090505b50905060005b60015481101561056c57600260008573ffffffffffffffffffffffffffffffffffffffff1673ffffffffffffffffffffffffffffffffffffffff16815260200190815260200160002060008281526020019081526020016000205482828151811061054d5761054c611e6f565b5b602002602001018181525050808061056490611ecd565b9150506104df565b5080915050919050565b60015481106105ba576040517f08c379a00000000000000000000000000000000000000000000000000000000081526004016105b190611f61565b60405180910390fd5b600080600083815260200190815260200160002090508060050154421015610617576040517f08c379a000000000000000000000000000000000000000000000000000000000815260040161060e90611fcd565b60405180910390fd5b8060040154816006015410610661576040517f08c379a000000000000000000000000000000000000000000000000000000000815260040161065890612039565b60405180910390fd5b6000600260003373ffffffffffffffffffffffffffffffffffffffff1673ffffffffffffffffffffffffffffffffffffffff1681526020019081526020016000206000848152602001908152602001600020549050600081116106f9576040517f08c379a00000000000000000000000000000000000000000000000000000000081526004016106f0906120a5565b60405180910390fd5b6000600260003373ffffffffffffffffffffffffffffffffffffffff1673ffffffffffffffffffffffffffffffffffffffff1681526020019081526020016000206000858152602001908152602001600020819055508082600601600082825461076391906120c5565b925050819055503373ffffffffffffffffffffffffffffffffffffffff166108fc829081150290604051600060405180830381858888f193505050501580156107b0573d6000803e3d6000fd5b50505050565b6107be611519565b6001548210610802576040517f08c379a00000000000000000000000000000000000000000000000000000000081526004016107f990611f61565b60405180910390fd5b600080838152602001908152602001600020604051806101000160405290816000820160009054906101000a900473ffffffffffffffffffffffffffffffffffffffff1673ffffffffffffffffffffffffffffffffffffffff1673ffffffffffffffffffffffffffffffffffffffff16815260200160018201805461088690611e3e565b80601f01602080910402602001604051908101604052809291908181526020018280546108b290611e3e565b80156108ff5780601f106108d4576101008083540402835291602001916108ff565b820191906000526020600020905b8154815290600101906020018083116108e257829003601f168201915b5050505050815260200160028201805461091890611e3e565b80601f016020809104026020016040519081016040528092919081815260200182805461094490611e3e565b80156109915780601f1061096657610100808354040283529160200191610991565b820191906000526020600020905b81548152906001019060200180831161097457829003601f168201915b505050505081526020016003820180546109aa90611e3e565b80601f01602080910402602001604051908101604052809291908181526020018280546109d690611e3e565b8015610a235780601f106109f857610100808354040283529160200191610a23565b820191906000526020600020905b815481529060010190602001808311610a0657829003601f168201915b505050505081526020016004820154815260200160058201548152602001600682015481526020016007820160009054906101000a900460ff1615151515815250509050919050565b60015481565b6002602052816000526040600020602052806000526040600020600091509150505481565b6001548110610adb576040517f08c379a0000000000000000000000000000000000000000000000000000000008152600401610ad290611f61565b60405180910390fd5b600080600083815260200190815260200160002090508060000160009054906101000a900473ffffffffffffffffffffffffffffffffffffffff1673ffffffffffffffffffffffffffffffffffffffff163373ffffffffffffffffffffffffffffffffffffffff1614610b83576040517f08c379a0000000000000000000000000000000000000000000000000000000008152600401610b7a9061216b565b60405180910390fd5b8060050154421015610bca576040517f08c379a0000000000000000000000000000000000000000000000000000000008152600401610bc190611fcd565b60405180910390fd5b8060070160009054906101000a900460ff1615610c1c576040517f08c379a0000000000000000000000000000000000000000000000000000000008152600401610c13906121d7565b60405180910390fd5b60018160070160006101000a81548160ff0219169083151502179055508060040154816006015410610cf5578060000160009054906101000a900473ffffffffffffffffffffffffffffffffffffffff1673ffffffffffffffffffffffffffffffffffffffff166108fc82600601549081150290604051600060405180830381858888f19350505050158015610cb6573d6000803e3d6000fd5b50817fe6d0944fb38eed88304b3297b4a965f4083297985b33a32d6138aba64c0db9386001604051610ce891906121f7565b60405180910390a2610d2f565b817fe6d0944fb38eed88304b3297b4a965f4083297985b33a32d6138aba64c0db9386000604051610d2691906121f7565b60405180910390a25b5050565b6060600060015467ffffffffffffffff811115610d5357610d52611c15565b5b604051908082528060200260200182016040528015610d8c57816020015b610d79611519565b815260200190600190039081610d715790505b50905060005b60015481101561103057600080828152602001908152602001600020604051806101000160405290816000820160009054906101000a900473ffffffffffffffffffffffffffffffffffffffff1673ffffffffffffffffffffffffffffffffffffffff1673ffffffffffffffffffffffffffffffffffffffff168152602001600182018054610e2090611e3e565b80601f0160208091040260200160405190810160405280929190818152602001828054610e4c90611e3e565b8015610e995780601f10610e6e57610100808354040283529160200191610e99565b820191906000526020600020905b815481529060010190602001808311610e7c57829003601f168201915b50505050508152602001600282018054610eb290611e3e565b80601f0160208091040260200160405190810160405280929190818152602001828054610ede90611e3e565b8015610f2b5780601f10610f0057610100808354040283529160200191610f2b565b820191906000526020600020905b815481529060010190602001808311610f0e57829003601f168201915b50505050508152602001600382018054610f4490611e3e565b80601f0160208091040260200160405190810160405280929190818152602001828054610f7090611e3e565b8015610fbd5780601f10610f9257610100808354040283529160200191610fbd565b820191906000526020600020905b815481529060010190602001808311610fa057829003601f168201915b505050505081526020016004820154815260200160058201548152602001600682015481526020016007820160009054906101000a900460ff16151515158152505082828151811061101257611011611e6f565b5b6020026020010181905250808061102890611ecd565b915050610d92565b508091505090565b6000831161107b576040517f08c379a00000000000000000000000000000000000000000000000000000000081526004016110729061225e565b60405180910390fd5b600082116110be576040517f08c379a00000000000000000000000000000000000000000000000000000000081526004016110b5906122ca565b60405180910390fd5b6000855111611102576040517f08c379a00000000000000000000000000000000000000000000000000000000081526004016110f990612336565b60405180910390fd5b6000845111611146576040517f08c379a000000000000000000000000000000000000000000000000000000000815260040161113d906123a2565b60405180910390fd5b6000620151808361115791906123c2565b426111629190612404565b90506040518061010001604052803373ffffffffffffffffffffffffffffffffffffffff1681526020018781526020018681526020018381526020018581526020018281526020016000815260200160001515815250600080600154815260200190815260200160002060008201518160000160006101000a81548173ffffffffffffffffffffffffffffffffffffffff021916908373ffffffffffffffffffffffffffffffffffffffff160217905550602082015181600101908161122891906125e4565b50604082015181600201908161123e91906125e4565b50606082015181600301908161125491906125e4565b506080820151816004015560a0820151816005015560c0820151816006015560e08201518160070160006101000a81548160ff0219169083151502179055509050503373ffffffffffffffffffffffffffffffffffffffff166001547f2cb04f56996beb67c0ab27012deb0e8e96941f5daf9c0e52abab9055849c1af588888689876040516112e79594939291906126b6565b60405180910390a36001600081548092919061130290611ecd565b9190505550505050505050565b6001548110611353576040517f08c379a000000000000000000000000000000000000000000000000000000000815260040161134a90611f61565b60405180910390fd5b60008060008381526020019081526020016000209050806005015442106113af576040517f08c379a00000000000000000000000000000000000000000000000000000000081526004016113a69061276a565b60405180910390fd5b8060070160009054906101000a900460ff1615611401576040517f08c379a00000000000000000000000000000000000000000000000000000000081526004016113f8906121d7565b60405180910390fd5b60003411611444576040517f08c379a000000000000000000000000000000000000000000000000000000000815260040161143b906127d6565b60405180910390fd5b348160060160008282546114589190612404565b9250508190555034600260003373ffffffffffffffffffffffffffffffffffffffff1673ffffffffffffffffffffffffffffffffffffffff168152602001908152602001600020600084815260200190815260200160002060008282546114bf9190612404565b925050819055503373ffffffffffffffffffffffffffffffffffffffff16827f0b5b4c52969ff7329ecf7ee536409fda87812b15a8622bc6e8cdeab3aee14a263460405161150d9190611a0e565b60405180910390a35050565b604051806101000160405280600073ffffffffffffffffffffffffffffffffffffffff1681526020016060815260200160608152602001606081526020016000815260200160008152602001600081526020016000151581525090565b6000604051905090565b600080fd5b600080fd5b6000819050919050565b61159d8161158a565b81146115a857600080fd5b50565b6000813590506115ba81611594565b92915050565b6000602082840312156115d6576115d5611580565b5b60006115e4848285016115ab565b91505092915050565b600073ffffffffffffffffffffffffffffffffffffffff82169050919050565b6000611618826115ed565b9050919050565b6116288161160d565b82525050565b600081519050919050565b600082825260208201905092915050565b60005b8381101561166857808201518184015260208101905061164d565b60008484015250505050565b6000601f19601f8301169050919050565b60006116908261162e565b61169a8185611639565b93506116aa81856020860161164a565b6116b381611674565b840191505092915050565b6116c78161158a565b82525050565b60008115159050919050565b6116e2816116cd565b82525050565b6000610100820190506116fe600083018b61161f565b8181036020830152611710818a611685565b905081810360408301526117248189611685565b905081810360608301526117388188611685565b905061174760808301876116be565b61175460a08301866116be565b61176160c08301856116be565b61176e60e08301846116d9565b9998505050505050505050565b6000611786826115ed565b9050919050565b6117968161177b565b81146117a157600080fd5b50565b6000813590506117b38161178d565b92915050565b6000602082840312156117cf576117ce611580565b5b60006117dd848285016117a4565b91505092915050565b600081519050919050565b600082825260208201905092915050565b6000819050602082019050919050565b61181b8161158a565b82525050565b600061182d8383611812565b60208301905092915050565b6000602082019050919050565b6000611851826117e6565b61185b81856117f1565b935061186683611802565b8060005b8381101561189757815161187e8882611821565b975061188983611839565b92505060018101905061186a565b5085935050505092915050565b600060208201905081810360008301526118be8184611846565b905092915050565b6118cf8161160d565b82525050565b600082825260208201905092915050565b60006118f18261162e565b6118fb81856118d5565b935061190b81856020860161164a565b61191481611674565b840191505092915050565b611928816116cd565b82525050565b60006101008301600083015161194760008601826118c6565b506020830151848203602086015261195f82826118e6565b9150506040830151848203604086015261197982826118e6565b9150506060830151848203606086015261199382826118e6565b91505060808301516119a86080860182611812565b5060a08301516119bb60a0860182611812565b5060c08301516119ce60c0860182611812565b5060e08301516119e160e086018261191f565b508091505092915050565b60006020820190508181036000830152611a06818461192e565b905092915050565b6000602082019050611a2360008301846116be565b92915050565b60008060408385031215611a4057611a3f611580565b5b6000611a4e858286016117a4565b9250506020611a5f858286016115ab565b9150509250929050565b600081519050919050565b600082825260208201905092915050565b6000819050602082019050919050565b600061010083016000830151611aae60008601826118c6565b5060208301518482036020860152611ac682826118e6565b91505060408301518482036040860152611ae082826118e6565b91505060608301518482036060860152611afa82826118e6565b9150506080830151611b0f6080860182611812565b5060a0830151611b2260a0860182611812565b5060c0830151611b3560c0860182611812565b5060e0830151611b4860e086018261191f565b508091505092915050565b6000611b5f8383611a95565b905092915050565b6000602082019050919050565b6000611b7f82611a69565b611b898185611a74565b935083602082028501611b9b85611a85565b8060005b85811015611bd75784840389528151611bb88582611b53565b9450611bc383611b67565b925060208a01995050600181019050611b9f565b50829750879550505050505092915050565b60006020820190508181036000830152611c038184611b74565b905092915050565b600080fd5b600080fd5b7f4e487b7100000000000000000000000000000000000000000000000000000000600052604160045260246000fd5b611c4d82611674565b810181811067ffffffffffffffff82111715611c6c57611c6b611c15565b5b80604052505050565b6000611c7f611576565b9050611c8b8282611c44565b919050565b600067ffffffffffffffff821115611cab57611caa611c15565b5b611cb482611674565b9050602081019050919050565b82818337600083830152505050565b6000611ce3611cde84611c90565b611c75565b905082815260208101848484011115611cff57611cfe611c10565b5b611d0a848285611cc1565b509392505050565b600082601f830112611d2757611d26611c0b565b5b8135611d37848260208601611cd0565b91505092915050565b600080600080600060a08688031215611d5c57611d5b611580565b5b600086013567ffffffffffffffff811115611d7a57611d79611585565b5b611d8688828901611d12565b955050602086013567ffffffffffffffff811115611da757611da6611585565b5b611db388828901611d12565b9450506040611dc4888289016115ab565b9350506060611dd5888289016115ab565b925050608086013567ffffffffffffffff811115611df657611df5611585565b5b611e0288828901611d12565b9150509295509295909350565b7f4e487b7100000000000000000000000000000000000000000000000000000000600052602260045260246000fd5b60006002820490506001821680611e5657607f821691505b602082108103611e6957611e68611e0f565b5b50919050565b7f4e487b7100000000000000000000000000000000000000000000000000000000600052603260045260246000fd5b7f4e487b7100000000000000000000000000000000000000000000000000000000600052601160045260246000fd5b6000611ed88261158a565b91507fffffffffffffffffffffffffffffffffffffffffffffffffffffffffffffffff8203611f0a57611f09611e9e565b5b600182019050919050565b7f43616d706169676e20646f6573206e6f74206578697374000000000000000000600082015250565b6000611f4b601783611639565b9150611f5682611f15565b602082019050919050565b60006020820190508181036000830152611f7a81611f3e565b9050919050565b7f43616d706169676e206973207374696c6c206163746976650000000000000000600082015250565b6000611fb7601883611639565b9150611fc282611f81565b602082019050919050565b60006020820190508181036000830152611fe681611faa565b9050919050565b7f43616d706169676e20726561636865642069747320676f616c00000000000000600082015250565b6000612023601983611639565b915061202e82611fed565b602082019050919050565b6000602082019050818103600083015261205281612016565b9050919050565b7f596f752068617665206e6f20646f6e6174696f6e7320746f20726566756e6400600082015250565b600061208f601f83611639565b915061209a82612059565b602082019050919050565b600060208201905081810360008301526120be81612082565b9050919050565b60006120d08261158a565b91506120db8361158a565b92508282039050818111156120f3576120f2611e9e565b5b92915050565b7f4f6e6c79206f776e65722063616e20636f6d706c657465207468652063616d7060008201527f6169676e00000000000000000000000000000000000000000000000000000000602082015250565b6000612155602483611639565b9150612160826120f9565b604082019050919050565b6000602082019050818103600083015261218481612148565b9050919050565b7f43616d706169676e20697320616c726561647920636f6d706c65746564000000600082015250565b60006121c1601d83611639565b91506121cc8261218b565b602082019050919050565b600060208201905081810360008301526121f0816121b4565b9050919050565b600060208201905061220c60008301846116d9565b92915050565b7f476f616c206d7573742062652067726561746572207468616e20300000000000600082015250565b6000612248601b83611639565b915061225382612212565b602082019050919050565b600060208201905081810360008301526122778161223b565b9050919050565b7f4475726174696f6e206d7573742062652067726561746572207468616e203000600082015250565b60006122b4601f83611639565b91506122bf8261227e565b602082019050919050565b600060208201905081810360008301526122e3816122a7565b9050919050565b7f5469746c652063616e6e6f7420626520656d7074790000000000000000000000600082015250565b6000612320601583611639565b915061232b826122ea565b602082019050919050565b6000602082019050818103600083015261234f81612313565b9050919050565b7f4465736372697074696f6e2063616e6e6f7420626520656d7074790000000000600082015250565b600061238c601b83611639565b915061239782612356565b602082019050919050565b600060208201905081810360008301526123bb8161237f565b9050919050565b60006123cd8261158a565b91506123d88361158a565b92508282026123e68161158a565b915082820484148315176123fd576123fc611e9e565b5b5092915050565b600061240f8261158a565b915061241a8361158a565b925082820190508082111561243257612431611e9e565b5b92915050565b60008190508160005260206000209050919050565b60006020601f8301049050919050565b600082821b905092915050565b60006008830261249a7fffffffffffffffffffffffffffffffffffffffffffffffffffffffffffffffff8261245d565b6124a4868361245d565b95508019841693508086168417925050509392505050565b6000819050919050565b60006124e16124dc6124d78461158a565b6124bc565b61158a565b9050919050565b6000819050919050565b6124fb836124c6565b61250f612507826124e8565b84845461246a565b825550505050565b600090565b612524612517565b61252f8184846124f2565b505050565b5b818110156125535761254860008261251c565b600181019050612535565b5050565b601f8211156125985761256981612438565b6125728461244d565b81016020851015612581578190505b61259561258d8561244d565b830182612534565b50505b505050565b600082821c905092915050565b60006125bb6000198460080261259d565b1980831691505092915050565b60006125d483836125aa565b9150826002028217905092915050565b6125ed8261162e565b67ffffffffffffffff81111561260657612605611c15565b5b6126108254611e3e565b61261b828285612557565b600060209050601f83116001811461264e576000841561263c578287015190505b61264685826125c8565b8655506126ae565b601f19841661265c86612438565b60005b828110156126845784890151825560018201915060208501945060208101905061265f565b868310156126a1578489015161269d601f8916826125aa565b8355505b6001600288020188555050505b505050505050565b600060a08201905081810360008301526126d08188611685565b905081810360208301526126e48187611685565b905081810360408301526126f88186611685565b905061270760608301856116be565b61271460808301846116be565b9695505050505050565b7f43616d706169676e2068617320656e6465640000000000000000000000000000600082015250565b6000612754601283611639565b915061275f8261271e565b602082019050919050565b6000602082019050818103600083015261278381612747565b9050919050565b7f446f6e6174696f6e206d7573742062652067726561746572207468616e203000600082015250565b60006127c0601f83611639565b91506127cb8261278a565b602082019050919050565b600060208201905081810360008301526127ef816127b3565b905091905056fea2646970667358221220a2c791f99b246fe0dfd221d12620d10c012f1640da7726c066ab53da24ff026864736f6c63430008130033",
  "linkReferences": {},
  "deployedLinkReferences": {}
}