{
  "_format": "hh-sol-artifact-1",
  "contractName": "CryptoFundraiser",
  "sourceName": "contracts/CryptoFundraiser.sol",
  "abi": [
    {
      "anonymous": false,
      "inputs": [
        {
          "indexed": true,
          "internalType": "uint256",
          "name": "campaignId",
          "type": "uint256"
        },
        {
          "indexed": false,
          "internalType": "bool",
          "name": "successful",
          "type": "bool"
        }
      ],
      "name": "CampaignCompleted",
      "type": "event"
    },
    {
      "anonymous": false,
      "inputs": [
        {
          "indexed": true,
          "internalType": "uint256",
          "name": "campaignId",
          "type": "uint256"
        },
        {
          "indexed": true,
          "internalType": "address",
          "name": "owner",
          "type": "address"
        },
        {
          "indexed": false,
          "internalType": "string",
          "name": "title",
          "type": "string"
        },
        {
          "indexed": false,
          "internalType": "string",
          "name": "description",
          "type": "string"
        },
        {
          "indexed": false,
          "internalType": "string",
          "name": "image",
          "type": "string"
        },
        {
          "indexed": false,
          "internalType": "uint256",
          "name": "goal",
          "type": "uint256"
        },
        {
          "indexed": false,
          "internalType": "uint256",
          "name": "deadline",
          "type": "uint256"
        }
      ],
      "name": "CampaignCreated",
      "type": "event"
    },
    {
      "anonymous": false,
      "inputs": [
        {
          "indexed": true,
          "internalType": "uint256",
          "name": "campaignId",
          "type": "uint256"
        },
        {
          "indexed": true,
          "internalType": "address",
          "name": "donor",
          "type": "address"
        },
        {
          "indexed": false,
          "internalType": "uint256",
          "name": "amount",
          "type": "uint256"
        }
      ],
      "name": "DonationReceived",
      "type": "event"
    },
    {
      "inputs": [],
      "name": "campaignCount",
      "outputs": [
        {
          "internalType": "uint256",
          "name": "",
          "type": "uint256"
        }
      ],
      "stateMutability": "view",
      "type": "function"
    },
    {
      "inputs": [
        {
          "internalType": "uint256",
          "name": "",
          "type": "uint256"
        }
      ],
      "name": "campaigns",
      "outputs": [
        {
          "internalType": "address payable",
          "name": "owner",
          "type": "address"
        },
        {
          "internalType": "string",
          "name": "title",
          "type": "string"
        },
        {
          "internalType": "string",
          "name": "description",
          "type": "string"
        },
        {
          "internalType": "string",
          "name": "image",
          "type": "string"
        },
        {
          "internalType": "uint256",
          "name": "goal",
          "type": "uint256"
        },
        {
          "internalType": "uint256",
          "name": "deadline",
          "type": "uint256"
        },
        {
          "internalType": "uint256",
          "name": "balance",
          "type": "uint256"
        },
        {
          "internalType": "bool",
          "name": "completed",
          "type": "bool"
        },
        {
          "internalType": "bool",
          "name": "autoComplete",
          "type": "bool"
        }
      ],
      "stateMutability": "view",
      "type": "function"
    },
    {
      "inputs": [
        {
          "internalType": "uint256",
          "name": "_campaignId",
          "type": "uint256"
        }
      ],
      "name": "completeCampaign",
      "outputs": [],
      "stateMutability": "nonpayable",
      "type": "function"
    },
    {
      "inputs": [
        {
          "internalType": "string",
          "name": "title",
          "type": "string"
        },
        {
          "internalType": "string",
          "name": "description",
          "type": "string"
        },
        {
          "internalType": "uint256",
          "name": "goalInWei",
          "type": "uint256"
        },
        {
          "internalType": "uint256",
          "name": "durationInDays",
          "type": "uint256"
        },
        {
          "internalType": "string",
          "name": "image",
          "type": "string"
        },
        {
          "internalType": "bool",
          "name": "autoComplete",
          "type": "bool"
        }
      ],
      "name": "createCampaign",
      "outputs": [],
      "stateMutability": "nonpayable",
      "type": "function"
    },
    {
      "inputs": [
        {
          "internalType": "uint256",
          "name": "_campaignId",
          "type": "uint256"
        }
      ],
      "name": "donate",
      "outputs": [],
      "stateMutability": "payable",
      "type": "function"
    },
    {
      "inputs": [
        {
          "internalType": "address",
          "name": "",
          "type": "address"
        },
        {
          "internalType": "uint256",
          "name": "",
          "type": "uint256"
        }
      ],
      "name": "donations",
      "outputs": [
        {
          "internalType": "uint256",
          "name": "",
          "type": "uint256"
        }
      ],
      "stateMutability": "view",
      "type": "function"
    },
    {
      "inputs": [
        {
          "internalType": "uint256",
          "name": "_campaignId",
          "type": "uint256"
        }
      ],
      "name": "getCampaign",
      "outputs": [
        {
          "components": [
            {
              "internalType": "address payable",
              "name": "owner",
              "type": "address"
            },
            {
              "internalType": "string",
              "name": "title",
              "type": "string"
            },
            {
              "internalType": "string",
              "name": "description",
              "type": "string"
            },
            {
              "internalType": "string",
              "name": "image",
              "type": "string"
            },
            {
              "internalType": "uint256",
              "name": "goal",
              "type": "uint256"
            },
            {
              "internalType": "uint256",
              "name": "deadline",
              "type": "uint256"
            },
            {
              "internalType": "uint256",
              "name": "balance",
              "type": "uint256"
            },
            {
              "internalType": "bool",
              "name": "completed",
              "type": "bool"
            },
            {
              "internalType": "bool",
              "name": "autoComplete",
              "type": "bool"
            }
          ],
          "internalType": "struct CryptoFundraiser.Campaign",
          "name": "",
          "type": "tuple"
        }
      ],
      "stateMutability": "view",
      "type": "function"
    },
    {
      "inputs": [],
      "name": "getCampaigns",
      "outputs": [
        {
          "components": [
            {
              "internalType": "address payable",
              "name": "owner",
              "type": "address"
            },
            {
              "internalType": "string",
              "name": "title",
              "type": "string"
            },
            {
              "internalType": "string",
              "name": "description",
              "type": "string"
            },
            {
              "internalType": "string",
              "name": "image",
              "type": "string"
            },
            {
              "internalType": "uint256",
              "name": "goal",
              "type": "uint256"
            },
            {
              "internalType": "uint256",
              "name": "deadline",
              "type": "uint256"
            },
            {
              "internalType": "uint256",
              "name": "balance",
              "type": "uint256"
            },
            {
              "internalType": "bool",
              "name": "completed",
              "type": "bool"
            },
            {
              "internalType": "bool",
              "name": "autoComplete",
              "type": "bool"
            }
          ],
          "internalType": "struct CryptoFundraiser.Campaign[]",
          "name": "",
          "type": "tuple[]"
        }
      ],
      "stateMutability": "view",
      "type": "function"
    },
    {
      "inputs": [
        {
          "internalType": "address",
          "name": "_donor",
          "type": "address"
        }
      ],
      "name": "getDonations",
      "outputs": [
        {
          "internalType": "uint256[]",
          "name": "",
          "type": "uint256[]"
        }
      ],
      "stateMutability": "view",
      "type": "function"
    },
    {
      "inputs": [
        {
          "internalType": "uint256",
          "name": "_campaignId",
          "type": "uint256"
        }
      ],
      "name": "refund",
      "outputs": [],
      "stateMutability": "nonpayable",
      "type": "function"
    }
  ],
  "bytecode": "0x6080604052600060015534801561001557600080fd5b50612a11806100256000396000f3fe6080604052600436106100915760003560e01c806395086ed11161005957806395086ed1146101a95780639553f180146101e6578063a6b036331461020f578063f14faf6f1461023a578063f5a185751461025657610091565b8063141961bc146100965780631910bdc2146100db578063278ecde1146101185780635598f8cc146101415780637274e30d1461017e575b600080fd5b3480156100a257600080fd5b506100bd60048036038101906100b8919061172e565b61027f565b6040516100d299989796959493929190611856565b60405180910390f35b3480156100e757600080fd5b5061010260048036038101906100fd9190611936565b61049f565b60405161010f9190611a21565b60405180910390f35b34801561012457600080fd5b5061013f600480360381019061013a919061172e565b61058a565b005b34801561014d57600080fd5b506101686004803603810190610163919061172e565b6107ca565b6040516101759190611b7e565b60405180910390f35b34801561018a57600080fd5b50610193610a9b565b6040516101a09190611ba0565b60405180910390f35b3480156101b557600080fd5b506101d060048036038101906101cb9190611bbb565b610aa1565b6040516101dd9190611ba0565b60405180910390f35b3480156101f257600080fd5b5061020d6004803603810190610208919061172e565b610ac6565b005b34801561021b57600080fd5b50610224610d62565b6040516102319190611d90565b60405180910390f35b610254600480360381019061024f919061172e565b611082565b005b34801561026257600080fd5b5061027d60048036038101906102789190611f13565b61137d565b005b60006020528060005260406000206000915090508060000160009054906101000a900473ffffffffffffffffffffffffffffffffffffffff16908060010180546102c890612023565b80601f01602080910402602001604051908101604052809291908181526020018280546102f490612023565b80156103415780601f1061031657610100808354040283529160200191610341565b820191906000526020600020905b81548152906001019060200180831161032457829003601f168201915b50505050509080600201805461035690612023565b80601f016020809104026020016040519081016040528092919081815260200182805461038290612023565b80156103cf5780601f106103a4576101008083540402835291602001916103cf565b820191906000526020600020905b8154815290600101906020018083116103b257829003601f168201915b5050505050908060030180546103e490612023565b80601f016020809104026020016040519081016040528092919081815260200182805461041090612023565b801561045d5780601f106104325761010080835404028352916020019161045d565b820191906000526020600020905b81548152906001019060200180831161044057829003601f168201915b5050505050908060040154908060050154908060060154908060070160009054906101000a900460ff16908060070160019054906101000a900460ff16905089565b6060600060015467ffffffffffffffff8111156104bf576104be611dbc565b5b6040519080825280602002602001820160405280156104ed5781602001602082028036833780820191505090505b50905060005b60015481101561058057600260008573ffffffffffffffffffffffffffffffffffffffff1673ffffffffffffffffffffffffffffffffffffffff16815260200190815260200160002060008281526020019081526020016000205482828151811061056157610560612054565b5b6020026020010181815250508080610578906120b2565b9150506104f3565b5080915050919050565b60015481106105ce576040517f08c379a00000000000000000000000000000000000000000000000000000000081526004016105c590612146565b60405180910390fd5b60008060008381526020019081526020016000209050806005015442101561062b576040517f08c379a0000000000000000000000000000000000000000000000000000000008152600401610622906121b2565b60405180910390fd5b8060040154816006015410610675576040517f08c379a000000000000000000000000000000000000000000000000000000000815260040161066c9061221e565b60405180910390fd5b6000600260003373ffffffffffffffffffffffffffffffffffffffff1673ffffffffffffffffffffffffffffffffffffffff16815260200190815260200160002060008481526020019081526020016000205490506000811161070d576040517f08c379a00000000000000000000000000000000000000000000000000000000081526004016107049061228a565b60405180910390fd5b6000600260003373ffffffffffffffffffffffffffffffffffffffff1673ffffffffffffffffffffffffffffffffffffffff1681526020019081526020016000206000858152602001908152602001600020819055508082600601600082825461077791906122aa565b925050819055503373ffffffffffffffffffffffffffffffffffffffff166108fc829081150290604051600060405180830381858888f193505050501580156107c4573d6000803e3d6000fd5b50505050565b6107d261167e565b6001548210610816576040517f08c379a000000000000000000000000000000000000000000000000000000000815260040161080d90612146565b60405180910390fd5b600080838152602001908152602001600020604051806101200160405290816000820160009054906101000a900473ffffffffffffffffffffffffffffffffffffffff1673ffffffffffffffffffffffffffffffffffffffff1673ffffffffffffffffffffffffffffffffffffffff16815260200160018201805461089a90612023565b80601f01602080910402602001604051908101604052809291908181526020018280546108c690612023565b80156109135780601f106108e857610100808354040283529160200191610913565b820191906000526020600020905b8154815290600101906020018083116108f657829003601f168201915b5050505050815260200160028201805461092c90612023565b80601f016020809104026020016040519081016040528092919081815260200182805461095890612023565b80156109a55780601f1061097a576101008083540402835291602001916109a5565b820191906000526020600020905b81548152906001019060200180831161098857829003601f168201915b505050505081526020016003820180546109be90612023565b80601f01602080910402602001604051908101604052809291908181526020018280546109ea90612023565b8015610a375780601f10610a0c57610100808354040283529160200191610a37565b820191906000526020600020905b815481529060010190602001808311610a1a57829003601f168201915b505050505081526020016004820154815260200160058201548152602001600682015481526020016007820160009054906101000a900460ff161515151581526020016007820160019054906101000a900460ff1615151515815250509050919050565b60015481565b6002602052816000526040600020602052806000526040600020600091509150505481565b6001548110610b0a576040517f08c379a0000000000000000000000000000000000000000000000000000000008152600401610b0190612146565b60405180910390fd5b600080600083815260200190815260200160002090508060000160009054906101000a900473ffffffffffffffffffffffffffffffffffffffff1673ffffffffffffffffffffffffffffffffffffffff163373ffffffffffffffffffffffffffffffffffffffff1614610bb2576040517f08c379a0000000000000000000000000000000000000000000000000000000008152600401610ba990612350565b60405180910390fd5b8060050154421015610bf9576040517f08c379a0000000000000000000000000000000000000000000000000000000008152600401610bf0906121b2565b60405180910390fd5b8060070160009054906101000a900460ff1615610c4b576040517f08c379a0000000000000000000000000000000000000000000000000000000008152600401610c42906123bc565b60405180910390fd5b60018160070160006101000a81548160ff0219169083151502179055508060040154816006015410610d24578060000160009054906101000a900473ffffffffffffffffffffffffffffffffffffffff1673ffffffffffffffffffffffffffffffffffffffff166108fc82600601549081150290604051600060405180830381858888f19350505050158015610ce5573d6000803e3d6000fd5b50817fe6d0944fb38eed88304b3297b4a965f4083297985b33a32d6138aba64c0db9386001604051610d1791906123dc565b60405180910390a2610d5e565b817fe6d0944fb38eed88304b3297b4a965f4083297985b33a32d6138aba64c0db9386000604051610d5591906123dc565b60405180910390a25b5050565b6060600060015467ffffffffffffffff811115610d8257610d81611dbc565b5b604051908082528060200260200182016040528015610dbb57816020015b610da861167e565b815260200190600190039081610da05790505b50905060005b60015481101561107a57600080828152602001908152602001600020604051806101200160405290816000820160009054906101000a900473ffffffffffffffffffffffffffffffffffffffff1673ffffffffffffffffffffffffffffffffffffffff1673ffffffffffffffffffffffffffffffffffffffff168152602001600182018054610e4f90612023565b80601f0160208091040260200160405190810160405280929190818152602001828054610e7b90612023565b8015610ec85780601f10610e9d57610100808354040283529160200191610ec8565b820191906000526020600020905b815481529060010190602001808311610eab57829003601f168201915b50505050508152602001600282018054610ee190612023565b80601f0160208091040260200160405190810160405280929190818152602001828054610f0d90612023565b8015610f5a5780601f10610f2f57610100808354040283529160200191610f5a565b820191906000526020600020905b815481529060010190602001808311610f3d57829003601f168201915b50505050508152602001600382018054610f7390612023565b80601f0160208091040260200160405190810160405280929190818152602001828054610f9f90612023565b8015610fec5780601f10610fc157610100808354040283529160200191610fec565b820191906000526020600020905b815481529060010190602001808311610fcf57829003601f168201915b505050505081526020016004820154815260200160058201548152602001600682015481526020016007820160009054906101000a900460ff161515151581526020016007820160019054906101000a900460ff16151515158152505082828151811061105c5761105b612054565b5b60200260200101819052508080611072906120b2565b915050610dc1565b508091505090565b60015481106110c6576040517f08c379a00000000000000000000000000000000000000000000000000000000081526004016110bd90612146565b60405180910390fd5b6000806000838152602001908152602001600020905080600501544210611122576040517f08c379a000000000000000000000000000000000000000000000000000000000815260040161111990612443565b60405180910390fd5b8060070160009054906101000a900460ff1615611174576040517f08c379a000000000000000000000000000000000000000000000000000000000815260040161116b906123bc565b60405180910390fd5b600034116111b7576040517f08c379a00000000000000000000000000000000000000000000000000000000081526004016111ae906124af565b60405180910390fd5b348160060160008282546111cb91906124cf565b9250508190555034600260003373ffffffffffffffffffffffffffffffffffffffff1673ffffffffffffffffffffffffffffffffffffffff1681526020019081526020016000206000848152602001908152602001600020600082825461123291906124cf565b925050819055503373ffffffffffffffffffffffffffffffffffffffff16827f0b5b4c52969ff7329ecf7ee536409fda87812b15a8622bc6e8cdeab3aee14a26346040516112809190611ba0565b60405180910390a38060070160019054906101000a900460ff1680156112ae57508060040154816006015410155b156113795760018160070160006101000a81548160ff0219169083151502179055508060000160009054906101000a900473ffffffffffffffffffffffffffffffffffffffff1673ffffffffffffffffffffffffffffffffffffffff166108fc82600601549081150290604051600060405180830381858888f1935050505015801561133e573d6000803e3d6000fd5b50817fe6d0944fb38eed88304b3297b4a965f4083297985b33a32d6138aba64c0db938600160405161137091906123dc565b60405180910390a25b5050565b600084116113c0576040517f08c379a00000000000000000000000000000000000000000000000000000000081526004016113b79061254f565b60405180910390fd5b60008311611403576040517f08c379a00000000000000000000000000000000000000000000000000000000081526004016113fa906125bb565b60405180910390fd5b6000865111611447576040517f08c379a000000000000000000000000000000000000000000000000000000000815260040161143e90612627565b60405180910390fd5b600085511161148b576040517f08c379a000000000000000000000000000000000000000000000000000000000815260040161148290612693565b60405180910390fd5b6000620151808461149c91906126b3565b426114a791906124cf565b90506040518061012001604052803373ffffffffffffffffffffffffffffffffffffffff16815260200188815260200187815260200184815260200186815260200182815260200160008152602001600015158152602001831515815250600080600154815260200190815260200160002060008201518160000160006101000a81548173ffffffffffffffffffffffffffffffffffffffff021916908373ffffffffffffffffffffffffffffffffffffffff160217905550602082015181600101908161157591906128a1565b50604082015181600201908161158b91906128a1565b5060608201518160030190816115a191906128a1565b506080820151816004015560a0820151816005015560c0820151816006015560e08201518160070160006101000a81548160ff0219169083151502179055506101008201518160070160016101000a81548160ff0219169083151502179055509050503373ffffffffffffffffffffffffffffffffffffffff166001547f2cb04f56996beb67c0ab27012deb0e8e96941f5daf9c0e52abab9055849c1af58989878a87604051611655959493929190612973565b60405180910390a360016000815480929190611670906120b2565b919050555050505050505050565b604051806101200160405280600073ffffffffffffffffffffffffffffffffffffffff1681526020016060815260200160608152602001606081526020016000815260200160008152602001600081526020016000151581526020016000151581525090565b6000604051905090565b600080fd5b600080fd5b6000819050919050565b61170b816116f8565b811461171657600080fd5b50565b60008135905061172881611702565b92915050565b600060208284031215611744576117436116ee565b5b600061175284828501611719565b91505092915050565b600073ffffffffffffffffffffffffffffffffffffffff82169050919050565b60006117868261175b565b9050919050565b6117968161177b565b82525050565b600081519050919050565b600082825260208201905092915050565b60005b838110156117d65780820151818401526020810190506117bb565b60008484015250505050565b6000601f19601f8301169050919050565b60006117fe8261179c565b61180881856117a7565b93506118188185602086016117b8565b611821816117e2565b840191505092915050565b611835816116f8565b82525050565b60008115159050919050565b6118508161183b565b82525050565b60006101208201905061186c600083018c61178d565b818103602083015261187e818b6117f3565b90508181036040830152611892818a6117f3565b905081810360608301526118a681896117f3565b90506118b5608083018861182c565b6118c260a083018761182c565b6118cf60c083018661182c565b6118dc60e0830185611847565b6118ea610100830184611847565b9a9950505050505050505050565b60006119038261175b565b9050919050565b611913816118f8565b811461191e57600080fd5b50565b6000813590506119308161190a565b92915050565b60006020828403121561194c5761194b6116ee565b5b600061195a84828501611921565b91505092915050565b600081519050919050565b600082825260208201905092915050565b6000819050602082019050919050565b611998816116f8565b82525050565b60006119aa838361198f565b60208301905092915050565b6000602082019050919050565b60006119ce82611963565b6119d8818561196e565b93506119e38361197f565b8060005b83811015611a145781516119fb888261199e565b9750611a06836119b6565b9250506001810190506119e7565b5085935050505092915050565b60006020820190508181036000830152611a3b81846119c3565b905092915050565b611a4c8161177b565b82525050565b600082825260208201905092915050565b6000611a6e8261179c565b611a788185611a52565b9350611a888185602086016117b8565b611a91816117e2565b840191505092915050565b611aa58161183b565b82525050565b600061012083016000830151611ac46000860182611a43565b5060208301518482036020860152611adc8282611a63565b91505060408301518482036040860152611af68282611a63565b91505060608301518482036060860152611b108282611a63565b9150506080830151611b25608086018261198f565b5060a0830151611b3860a086018261198f565b5060c0830151611b4b60c086018261198f565b5060e0830151611b5e60e0860182611a9c565b50610100830151611b73610100860182611a9c565b508091505092915050565b60006020820190508181036000830152611b988184611aab565b905092915050565b6000602082019050611bb5600083018461182c565b92915050565b60008060408385031215611bd257611bd16116ee565b5b6000611be085828601611921565b9250506020611bf185828601611719565b9150509250929050565b600081519050919050565b600082825260208201905092915050565b6000819050602082019050919050565b600061012083016000830151611c406000860182611a43565b5060208301518482036020860152611c588282611a63565b91505060408301518482036040860152611c728282611a63565b91505060608301518482036060860152611c8c8282611a63565b9150506080830151611ca1608086018261198f565b5060a0830151611cb460a086018261198f565b5060c0830151611cc760c086018261198f565b5060e0830151611cda60e0860182611a9c565b50610100830151611cef610100860182611a9c565b508091505092915050565b6000611d068383611c27565b905092915050565b6000602082019050919050565b6000611d2682611bfb565b611d308185611c06565b935083602082028501611d4285611c17565b8060005b85811015611d7e5784840389528151611d5f8582611cfa565b9450611d6a83611d0e565b925060208a01995050600181019050611d46565b50829750879550505050505092915050565b60006020820190508181036000830152611daa8184611d1b565b905092915050565b600080fd5b600080fd5b7f4e487b7100000000000000000000000000000000000000000000000000000000600052604160045260246000fd5b611df4826117e2565b810181811067ffffffffffffffff82111715611e1357611e12611dbc565b5b80604052505050565b6000611e266116e4565b9050611e328282611deb565b919050565b600067ffffffffffffffff821115611e5257611e51611dbc565b5b611e5b826117e2565b9050602081019050919050565b82818337600083830152505050565b6000611e8a611e8584611e37565b611e1c565b905082815260208101848484011115611ea657611ea5611db7565b5b611eb1848285611e68565b509392505050565b600082601f830112611ece57611ecd611db2565b5b8135611ede848260208601611e77565b91505092915050565b611ef08161183b565b8114611efb57600080fd5b50565b600081359050611f0d81611ee7565b92915050565b60008060008060008060c08789031215611f3057611f2f6116ee565b5b600087013567ffffffffffffffff811115611f4e57611f4d6116f3565b5b611f5a89828a01611eb9565b965050602087013567ffffffffffffffff811115611f7b57611f7a6116f3565b5b611f8789828a01611eb9565b9550506040611f9889828a01611719565b9450506060611fa989828a01611719565b935050608087013567ffffffffffffffff811115611fca57611fc96116f3565b5b611fd689828a01611eb9565b92505060a0611fe789828a01611efe565b9150509295509295509295565b7f4e487b7100000000000000000000000000000000000000000000000000000000600052602260045260246000fd5b6000600282049050600182168061203b57607f821691505b60208210810361204e5761204d611ff4565b5b50919050565b7f4e487b7100000000000000000000000000000000000000000000000000000000600052603260045260246000fd5b7f4e487b7100000000000000000000000000000000000000000000000000000000600052601160045260246000fd5b60006120bd826116f8565b91507fffffffffffffffffffffffffffffffffffffffffffffffffffffffffffffffff82036120ef576120ee612083565b5b600182019050919050565b7f43616d706169676e20646f6573206e6f74206578697374000000000000000000600082015250565b60006121306017836117a7565b915061213b826120fa565b602082019050919050565b6000602082019050818103600083015261215f81612123565b9050919050565b7f43616d706169676e206973207374696c6c206163746976650000000000000000600082015250565b600061219c6018836117a7565b91506121a782612166565b602082019050919050565b600060208201905081810360008301526121cb8161218f565b9050919050565b7f43616d706169676e20726561636865642069747320676f616c00000000000000600082015250565b60006122086019836117a7565b9150612213826121d2565b602082019050919050565b60006020820190508181036000830152612237816121fb565b9050919050565b7f596f752068617665206e6f20646f6e6174696f6e7320746f20726566756e6400600082015250565b6000612274601f836117a7565b915061227f8261223e565b602082019050919050565b600060208201905081810360008301526122a381612267565b9050919050565b60006122b5826116f8565b91506122c0836116f8565b92508282039050818111156122d8576122d7612083565b5b92915050565b7f4f6e6c79206f776e65722063616e20636f6d706c657465207468652063616d7060008201527f6169676e00000000000000000000000000000000000000000000000000000000602082015250565b600061233a6024836117a7565b9150612345826122de565b604082019050919050565b600060208201905081810360008301526123698161232d565b9050919050565b7f43616d706169676e20697320616c726561647920636f6d706c65746564000000600082015250565b60006123a6601d836117a7565b91506123b182612370565b602082019050919050565b600060208201905081810360008301526123d581612399565b9050919050565b60006020820190506123f16000830184611847565b92915050565b7f43616d706169676e2068617320656e6465640000000000000000000000000000600082015250565b600061242d6012836117a7565b9150612438826123f7565b602082019050919050565b6000602082019050818103600083015261245c81612420565b9050919050565b7f446f6e6174696f6e206d7573742062652067726561746572207468616e203000600082015250565b6000612499601f836117a7565b91506124a482612463565b602082019050919050565b600060208201905081810360008301526124c88161248c565b9050919050565b60006124da826116f8565b91506124e5836116f8565b92508282019050808211156124fd576124fc612083565b5b92915050565b7f476f616c206d7573742062652067726561746572207468616e20300000000000600082015250565b6000612539601b836117a7565b915061254482612503565b602082019050919050565b600060208201905081810360008301526125688161252c565b9050919050565b7f4475726174696f6e206d7573742062652067726561746572207468616e203000600082015250565b60006125a5601f836117a7565b91506125b08261256f565b602082019050919050565b600060208201905081810360008301526125d481612598565b9050919050565b7f5469746c652063616e6e6f7420626520656d7074790000000000000000000000600082015250565b60006126116015836117a7565b915061261c826125db565b602082019050919050565b6000602082019050818103600083015261264081612604565b9050919050565b7f4465736372697074696f6e2063616e6e6f7420626520656d7074790000000000600082015250565b600061267d601b836117a7565b915061268882612647565b602082019050919050565b600060208201905081810360008301526126ac81612670565b9050919050565b60006126be826116f8565b91506126c9836116f8565b92508282026126d7816116f8565b915082820484148315176126ee576126ed612083565b5b5092915050565b60008190508160005260206000209050919050565b60006020601f8301049050919050565b600082821b905092915050565b6000600883026127577fffffffffffffffffffffffffffffffffffffffffffffffffffffffffffffffff8261271a565b612761868361271a565b95508019841693508086168417925050509392505050565b6000819050919050565b600061279e612799612794846116f8565b612779565b6116f8565b9050919050565b6000819050919050565b6127b883612783565b6127cc6127c4826127a5565b848454612727565b825550505050565b600090565b6127e16127d4565b6127ec8184846127af565b505050565b5b81811015612810576128056000826127d9565b6001810190506127f2565b5050565b601f82111561285557612826816126f5565b61282f8461270a565b8101602085101561283e578190505b61285261284a8561270a565b8301826127f1565b50505b505050565b600082821c905092915050565b60006128786000198460080261285a565b1980831691505092915050565b60006128918383612867565b9150826002028217905092915050565b6128aa8261179c565b67ffffffffffffffff8111156128c3576128c2611dbc565b5b6128cd8254612023565b6128d8828285612814565b600060209050601f83116001811461290b57600084156128f9578287015190505b6129038582612885565b86555061296b565b601f198416612919866126f5565b60005b828110156129415784890151825560018201915060208501945060208101905061291c565b8683101561295e578489015161295a601f891682612867565b8355505b6001600288020188555050505b505050505050565b600060a082019050818103600083015261298d81886117f3565b905081810360208301526129a181876117f3565b905081810360408301526129b581866117f3565b90506129c4606083018561182c565b6129d1608083018461182c565b969550505050505056fea264697066735822122071a16ac949d5585104db364e9354eaf21cb92dfa72c552179902199e3e09a6f064736f6c63430008130033",
  "linkReferences": {},
  "deployedLinkReferences": {}
}