{
  "_format": "hh-sol-artifact-1",
  "contractName": "CryptoFundraiser",
  "sourceName": "contracts/CryptoFundraiser.sol",
  "abi": [
    {
      "anonymous": false,
      "inputs": [
        {
          "indexed": true,
          "internalType": "uint256",
          "name": "campaignId",
          "type": "uint256"
        },
        {
          "indexed": false,
          "internalType": "bool",
          "name": "successful",
          "type": "bool"
        }
      ],
      "name": "CampaignCompleted",
      "type": "event"
    },
    {
      "anonymous": false,
      "inputs": [
        {
          "indexed": true,
          "internalType": "uint256",
          "name": "campaignId",
          "type": "uint256"
        },
        {
          "indexed": true,
          "internalType": "address",
          "name": "owner",
          "type": "address"
        },
        {
          "indexed": false,
          "internalType": "string",
          "name": "title",
          "type": "string"
        },
        {
          "indexed": false,
          "internalType": "string",
          "name": "description",
          "type": "string"
        },
        {
          "indexed": false,
          "internalType": "string",
          "name": "image",
          "type": "string"
        },
        {
          "indexed": false,
          "internalType": "uint256",
          "name": "goal",
          "type": "uint256"
        },
        {
          "indexed": false,
          "internalType": "uint256",
          "name": "deadline",
          "type": "uint256"
        }
      ],
      "name": "CampaignCreated",
      "type": "event"
    },
    {
      "anonymous": false,
      "inputs": [
        {
          "indexed": true,
          "internalType": "uint256",
          "name": "campaignId",
          "type": "uint256"
        },
        {
          "indexed": true,
          "internalType": "address",
          "name": "donor",
          "type": "address"
        },
        {
          "indexed": false,
          "internalType": "uint256",
          "name": "amount",
          "type": "uint256"
        }
      ],
      "name": "DonationReceived",
      "type": "event"
    },
    {
      "inputs": [],
      "name": "campaignCount",
      "outputs": [
        {
          "internalType": "uint256",
          "name": "",
          "type": "uint256"
        }
      ],
      "stateMutability": "view",
      "type": "function"
    },
    {
      "inputs": [
        {
          "internalType": "uint256",
          "name": "",
          "type": "uint256"
        }
      ],
      "name": "campaigns",
      "outputs": [
        {
          "internalType": "address payable",
          "name": "owner",
          "type": "address"
        },
        {
          "internalType": "string",
          "name": "title",
          "type": "string"
        },
        {
          "internalType": "string",
          "name": "description",
          "type": "string"
        },
        {
          "internalType": "string",
          "name": "image",
          "type": "string"
        },
        {
          "internalType": "uint256",
          "name": "goal",
          "type": "uint256"
        },
        {
          "internalType": "uint256",
          "name": "deadline",
          "type": "uint256"
        },
        {
          "internalType": "uint256",
          "name": "balance",
          "type": "uint256"
        },
        {
          "internalType": "bool",
          "name": "completed",
          "type": "bool"
        },
        {
          "internalType": "bool",
          "name": "autoComplete",
          "type": "bool"
        }
      ],
      "stateMutability": "view",
      "type": "function"
    },
    {
      "inputs": [
        {
          "internalType": "uint256",
          "name": "_campaignId",
          "type": "uint256"
        }
      ],
      "name": "canCompleteCampaign",
      "outputs": [
        {
          "internalType": "bool",
          "name": "",
          "type": "bool"
        }
      ],
      "stateMutability": "view",
      "type": "function"
    },
    {
      "inputs": [
        {
          "internalType": "uint256",
          "name": "_campaignId",
          "type": "uint256"
        }
      ],
      "name": "completeCampaign",
      "outputs": [],
      "stateMutability": "nonpayable",
      "type": "function"
    },
    {
      "inputs": [
        {
          "internalType": "string",
          "name": "title",
          "type": "string"
        },
        {
          "internalType": "string",
          "name": "description",
          "type": "string"
        },
        {
          "internalType": "uint256",
          "name": "goalInWei",
          "type": "uint256"
        },
        {
          "internalType": "uint256",
          "name": "durationInDays",
          "type": "uint256"
        },
        {
          "internalType": "string",
          "name": "image",
          "type": "string"
        },
        {
          "internalType": "bool",
          "name": "autoComplete",
          "type": "bool"
        }
      ],
      "name": "createCampaign",
      "outputs": [],
      "stateMutability": "nonpayable",
      "type": "function"
    },
    {
      "inputs": [
        {
          "internalType": "uint256",
          "name": "_campaignId",
          "type": "uint256"
        }
      ],
      "name": "donate",
      "outputs": [],
      "stateMutability": "payable",
      "type": "function"
    },
    {
      "inputs": [
        {
          "internalType": "address",
          "name": "",
          "type": "address"
        },
        {
          "internalType": "uint256",
          "name": "",
          "type": "uint256"
        }
      ],
      "name": "donations",
      "outputs": [
        {
          "internalType": "uint256",
          "name": "",
          "type": "uint256"
        }
      ],
      "stateMutability": "view",
      "type": "function"
    },
    {
      "inputs": [
        {
          "internalType": "uint256",
          "name": "_campaignId",
          "type": "uint256"
        }
      ],
      "name": "getCampaign",
      "outputs": [
        {
          "components": [
            {
              "internalType": "address payable",
              "name": "owner",
              "type": "address"
            },
            {
              "internalType": "string",
              "name": "title",
              "type": "string"
            },
            {
              "internalType": "string",
              "name": "description",
              "type": "string"
            },
            {
              "internalType": "string",
              "name": "image",
              "type": "string"
            },
            {
              "internalType": "uint256",
              "name": "goal",
              "type": "uint256"
            },
            {
              "internalType": "uint256",
              "name": "deadline",
              "type": "uint256"
            },
            {
              "internalType": "uint256",
              "name": "balance",
              "type": "uint256"
            },
            {
              "internalType": "bool",
              "name": "completed",
              "type": "bool"
            },
            {
              "internalType": "bool",
              "name": "autoComplete",
              "type": "bool"
            }
          ],
          "internalType": "struct CryptoFundraiser.Campaign",
          "name": "",
          "type": "tuple"
        }
      ],
      "stateMutability": "view",
      "type": "function"
    },
    {
      "inputs": [],
      "name": "getCampaigns",
      "outputs": [
        {
          "components": [
            {
              "internalType": "address payable",
              "name": "owner",
              "type": "address"
            },
            {
              "internalType": "string",
              "name": "title",
              "type": "string"
            },
            {
              "internalType": "string",
              "name": "description",
              "type": "string"
            },
            {
              "internalType": "string",
              "name": "image",
              "type": "string"
            },
            {
              "internalType": "uint256",
              "name": "goal",
              "type": "uint256"
            },
            {
              "internalType": "uint256",
              "name": "deadline",
              "type": "uint256"
            },
            {
              "internalType": "uint256",
              "name": "balance",
              "type": "uint256"
            },
            {
              "internalType": "bool",
              "name": "completed",
              "type": "bool"
            },
            {
              "internalType": "bool",
              "name": "autoComplete",
              "type": "bool"
            }
          ],
          "internalType": "struct CryptoFundraiser.Campaign[]",
          "name": "",
          "type": "tuple[]"
        }
      ],
      "stateMutability": "view",
      "type": "function"
    },
    {
      "inputs": [
        {
          "internalType": "address",
          "name": "_donor",
          "type": "address"
        }
      ],
      "name": "getDonations",
      "outputs": [
        {
          "internalType": "uint256[]",
          "name": "",
          "type": "uint256[]"
        }
      ],
      "stateMutability": "view",
      "type": "function"
    },
    {
      "inputs": [
        {
          "internalType": "uint256",
          "name": "_campaignId",
          "type": "uint256"
        }
      ],
      "name": "refund",
      "outputs": [],
      "stateMutability": "nonpayable",
      "type": "function"
    }
  ],
  "bytecode": "0x6080604052600060015534801561001557600080fd5b50612c19806100256000396000f3fe60806040526004361061009c5760003560e01c806395086ed11161006457806395086ed1146101b45780639553f180146101f15780639ad49bf81461021a578063a6b0363314610257578063f14faf6f14610282578063f5a185751461029e5761009c565b8063141961bc146100a15780631910bdc2146100e6578063278ecde1146101235780635598f8cc1461014c5780637274e30d14610189575b600080fd5b3480156100ad57600080fd5b506100c860048036038101906100c391906118ca565b6102c7565b6040516100dd999897969594939291906119f2565b60405180910390f35b3480156100f257600080fd5b5061010d60048036038101906101089190611ad2565b6104e7565b60405161011a9190611bbd565b60405180910390f35b34801561012f57600080fd5b5061014a600480360381019061014591906118ca565b6105d2565b005b34801561015857600080fd5b50610173600480360381019061016e91906118ca565b610864565b6040516101809190611d1a565b60405180910390f35b34801561019557600080fd5b5061019e610b35565b6040516101ab9190611d3c565b60405180910390f35b3480156101c057600080fd5b506101db60048036038101906101d69190611d57565b610b3b565b6040516101e89190611d3c565b60405180910390f35b3480156101fd57600080fd5b50610218600480360381019061021391906118ca565b610b60565b005b34801561022657600080fd5b50610241600480360381019061023c91906118ca565b610cf3565b60405161024e9190611d97565b60405180910390f35b34801561026357600080fd5b5061026c610e3b565b6040516102799190611f47565b60405180910390f35b61029c600480360381019061029791906118ca565b61115b565b005b3480156102aa57600080fd5b506102c560048036038101906102c091906120ca565b61139a565b005b60006020528060005260406000206000915090508060000160009054906101000a900473ffffffffffffffffffffffffffffffffffffffff1690806001018054610310906121da565b80601f016020809104026020016040519081016040528092919081815260200182805461033c906121da565b80156103895780601f1061035e57610100808354040283529160200191610389565b820191906000526020600020905b81548152906001019060200180831161036c57829003601f168201915b50505050509080600201805461039e906121da565b80601f01602080910402602001604051908101604052809291908181526020018280546103ca906121da565b80156104175780601f106103ec57610100808354040283529160200191610417565b820191906000526020600020905b8154815290600101906020018083116103fa57829003601f168201915b50505050509080600301805461042c906121da565b80601f0160208091040260200160405190810160405280929190818152602001828054610458906121da565b80156104a55780601f1061047a576101008083540402835291602001916104a5565b820191906000526020600020905b81548152906001019060200180831161048857829003601f168201915b5050505050908060040154908060050154908060060154908060070160009054906101000a900460ff16908060070160019054906101000a900460ff16905089565b6060600060015467ffffffffffffffff81111561050757610506611f73565b5b6040519080825280602002602001820160405280156105355781602001602082028036833780820191505090505b50905060005b6001548110156105c857600260008573ffffffffffffffffffffffffffffffffffffffff1673ffffffffffffffffffffffffffffffffffffffff1681526020019081526020016000206000828152602001908152602001600020548282815181106105a9576105a861220b565b5b60200260200101818152505080806105c090612269565b91505061053b565b5080915050919050565b6001548110610616576040517f08c379a000000000000000000000000000000000000000000000000000000000815260040161060d906122fd565b60405180910390fd5b600080600083815260200190815260200160002090508060050154421015610673576040517f08c379a000000000000000000000000000000000000000000000000000000000815260040161066a90612369565b60405180910390fd5b80600401548160060154106106bd576040517f08c379a00000000000000000000000000000000000000000000000000000000081526004016106b4906123d5565b60405180910390fd5b8060070160009054906101000a900460ff161561070f576040517f08c379a000000000000000000000000000000000000000000000000000000000815260040161070690612441565b60405180910390fd5b6000600260003373ffffffffffffffffffffffffffffffffffffffff1673ffffffffffffffffffffffffffffffffffffffff1681526020019081526020016000206000848152602001908152602001600020549050600081116107a7576040517f08c379a000000000000000000000000000000000000000000000000000000000815260040161079e906124ad565b60405180910390fd5b6000600260003373ffffffffffffffffffffffffffffffffffffffff1673ffffffffffffffffffffffffffffffffffffffff1681526020019081526020016000206000858152602001908152602001600020819055508082600601600082825461081191906124cd565b925050819055503373ffffffffffffffffffffffffffffffffffffffff166108fc829081150290604051600060405180830381858888f1935050505015801561085e573d6000803e3d6000fd5b50505050565b61086c61181a565b60015482106108b0576040517f08c379a00000000000000000000000000000000000000000000000000000000081526004016108a7906122fd565b60405180910390fd5b600080838152602001908152602001600020604051806101200160405290816000820160009054906101000a900473ffffffffffffffffffffffffffffffffffffffff1673ffffffffffffffffffffffffffffffffffffffff1673ffffffffffffffffffffffffffffffffffffffff168152602001600182018054610934906121da565b80601f0160208091040260200160405190810160405280929190818152602001828054610960906121da565b80156109ad5780601f10610982576101008083540402835291602001916109ad565b820191906000526020600020905b81548152906001019060200180831161099057829003601f168201915b505050505081526020016002820180546109c6906121da565b80601f01602080910402602001604051908101604052809291908181526020018280546109f2906121da565b8015610a3f5780601f10610a1457610100808354040283529160200191610a3f565b820191906000526020600020905b815481529060010190602001808311610a2257829003601f168201915b50505050508152602001600382018054610a58906121da565b80601f0160208091040260200160405190810160405280929190818152602001828054610a84906121da565b8015610ad15780601f10610aa657610100808354040283529160200191610ad1565b820191906000526020600020905b815481529060010190602001808311610ab457829003601f168201915b505050505081526020016004820154815260200160058201548152602001600682015481526020016007820160009054906101000a900460ff161515151581526020016007820160019054906101000a900460ff1615151515815250509050919050565b60015481565b6002602052816000526040600020602052806000526040600020600091509150505481565b6001548110610ba4576040517f08c379a0000000000000000000000000000000000000000000000000000000008152600401610b9b906122fd565b60405180910390fd5b600080600083815260200190815260200160002090508060000160009054906101000a900473ffffffffffffffffffffffffffffffffffffffff1673ffffffffffffffffffffffffffffffffffffffff163373ffffffffffffffffffffffffffffffffffffffff1614610c4c576040517f08c379a0000000000000000000000000000000000000000000000000000000008152600401610c4390612573565b60405180910390fd5b610c5582610cf3565b610c94576040517f08c379a0000000000000000000000000000000000000000000000000000000008152600401610c8b906125df565b60405180910390fd5b8060070160009054906101000a900460ff1615610ce6576040517f08c379a0000000000000000000000000000000000000000000000000000000008152600401610cdd90612441565b60405180910390fd5b610cef8261169b565b5050565b60006001548210610d39576040517f08c379a0000000000000000000000000000000000000000000000000000000008152600401610d30906122fd565b60405180910390fd5b600080600084815260200190815260200160002090508060070160009054906101000a900460ff1615610d70576000915050610e36565b8060070160019054906101000a900460ff168015610d9657508060040154816006015410155b15610da5576001915050610e36565b80600501544210610dba576001915050610e36565b8060040154816006015410158015610e2157508060000160009054906101000a900473ffffffffffffffffffffffffffffffffffffffff1673ffffffffffffffffffffffffffffffffffffffff163373ffffffffffffffffffffffffffffffffffffffff16145b15610e30576001915050610e36565b60009150505b919050565b6060600060015467ffffffffffffffff811115610e5b57610e5a611f73565b5b604051908082528060200260200182016040528015610e9457816020015b610e8161181a565b815260200190600190039081610e795790505b50905060005b60015481101561115357600080828152602001908152602001600020604051806101200160405290816000820160009054906101000a900473ffffffffffffffffffffffffffffffffffffffff1673ffffffffffffffffffffffffffffffffffffffff1673ffffffffffffffffffffffffffffffffffffffff168152602001600182018054610f28906121da565b80601f0160208091040260200160405190810160405280929190818152602001828054610f54906121da565b8015610fa15780601f10610f7657610100808354040283529160200191610fa1565b820191906000526020600020905b815481529060010190602001808311610f8457829003601f168201915b50505050508152602001600282018054610fba906121da565b80601f0160208091040260200160405190810160405280929190818152602001828054610fe6906121da565b80156110335780601f1061100857610100808354040283529160200191611033565b820191906000526020600020905b81548152906001019060200180831161101657829003601f168201915b5050505050815260200160038201805461104c906121da565b80601f0160208091040260200160405190810160405280929190818152602001828054611078906121da565b80156110c55780601f1061109a576101008083540402835291602001916110c5565b820191906000526020600020905b8154815290600101906020018083116110a857829003601f168201915b505050505081526020016004820154815260200160058201548152602001600682015481526020016007820160009054906101000a900460ff161515151581526020016007820160019054906101000a900460ff1615151515815250508282815181106111355761113461220b565b5b6020026020010181905250808061114b90612269565b915050610e9a565b508091505090565b600154811061119f576040517f08c379a0000000000000000000000000000000000000000000000000000000008152600401611196906122fd565b60405180910390fd5b60008060008381526020019081526020016000209050806005015442106111fb576040517f08c379a00000000000000000000000000000000000000000000000000000000081526004016111f29061264b565b60405180910390fd5b8060070160009054906101000a900460ff161561124d576040517f08c379a000000000000000000000000000000000000000000000000000000000815260040161124490612441565b60405180910390fd5b60003411611290576040517f08c379a0000000000000000000000000000000000000000000000000000000008152600401611287906126b7565b60405180910390fd5b348160060160008282546112a491906126d7565b9250508190555034600260003373ffffffffffffffffffffffffffffffffffffffff1673ffffffffffffffffffffffffffffffffffffffff1681526020019081526020016000206000848152602001908152602001600020600082825461130b91906126d7565b925050819055503373ffffffffffffffffffffffffffffffffffffffff16827f0b5b4c52969ff7329ecf7ee536409fda87812b15a8622bc6e8cdeab3aee14a26346040516113599190611d3c565b60405180910390a38060070160019054906101000a900460ff16801561138757508060040154816006015410155b15611396576113958261169b565b5b5050565b600084116113dd576040517f08c379a00000000000000000000000000000000000000000000000000000000081526004016113d490612757565b60405180910390fd5b60008311611420576040517f08c379a0000000000000000000000000000000000000000000000000000000008152600401611417906127c3565b60405180910390fd5b6000865111611464576040517f08c379a000000000000000000000000000000000000000000000000000000000815260040161145b9061282f565b60405180910390fd5b60008551116114a8576040517f08c379a000000000000000000000000000000000000000000000000000000000815260040161149f9061289b565b60405180910390fd5b600062015180846114b991906128bb565b426114c491906126d7565b90506040518061012001604052803373ffffffffffffffffffffffffffffffffffffffff16815260200188815260200187815260200184815260200186815260200182815260200160008152602001600015158152602001831515815250600080600154815260200190815260200160002060008201518160000160006101000a81548173ffffffffffffffffffffffffffffffffffffffff021916908373ffffffffffffffffffffffffffffffffffffffff16021790555060208201518160010190816115929190612aa9565b5060408201518160020190816115a89190612aa9565b5060608201518160030190816115be9190612aa9565b506080820151816004015560a0820151816005015560c0820151816006015560e08201518160070160006101000a81548160ff0219169083151502179055506101008201518160070160016101000a81548160ff0219169083151502179055509050503373ffffffffffffffffffffffffffffffffffffffff166001547f2cb04f56996beb67c0ab27012deb0e8e96941f5daf9c0e52abab9055849c1af58989878a87604051611672959493929190612b7b565b60405180910390a36001600081548092919061168d90612269565b919050555050505050505050565b600080600083815260200190815260200160002090508060070160009054906101000a900460ff1615611703576040517f08c379a00000000000000000000000000000000000000000000000000000000081526004016116fa90612441565b60405180910390fd5b60018160070160006101000a81548160ff02191690831515021790555080600401548160060154106117dc578060000160009054906101000a900473ffffffffffffffffffffffffffffffffffffffff1673ffffffffffffffffffffffffffffffffffffffff166108fc82600601549081150290604051600060405180830381858888f1935050505015801561179d573d6000803e3d6000fd5b50817fe6d0944fb38eed88304b3297b4a965f4083297985b33a32d6138aba64c0db93860016040516117cf9190611d97565b60405180910390a2611816565b817fe6d0944fb38eed88304b3297b4a965f4083297985b33a32d6138aba64c0db938600060405161180d9190611d97565b60405180910390a25b5050565b604051806101200160405280600073ffffffffffffffffffffffffffffffffffffffff1681526020016060815260200160608152602001606081526020016000815260200160008152602001600081526020016000151581526020016000151581525090565b6000604051905090565b600080fd5b600080fd5b6000819050919050565b6118a781611894565b81146118b257600080fd5b50565b6000813590506118c48161189e565b92915050565b6000602082840312156118e0576118df61188a565b5b60006118ee848285016118b5565b91505092915050565b600073ffffffffffffffffffffffffffffffffffffffff82169050919050565b6000611922826118f7565b9050919050565b61193281611917565b82525050565b600081519050919050565b600082825260208201905092915050565b60005b83811015611972578082015181840152602081019050611957565b60008484015250505050565b6000601f19601f8301169050919050565b600061199a82611938565b6119a48185611943565b93506119b4818560208601611954565b6119bd8161197e565b840191505092915050565b6119d181611894565b82525050565b60008115159050919050565b6119ec816119d7565b82525050565b600061012082019050611a08600083018c611929565b8181036020830152611a1a818b61198f565b90508181036040830152611a2e818a61198f565b90508181036060830152611a42818961198f565b9050611a5160808301886119c8565b611a5e60a08301876119c8565b611a6b60c08301866119c8565b611a7860e08301856119e3565b611a866101008301846119e3565b9a9950505050505050505050565b6000611a9f826118f7565b9050919050565b611aaf81611a94565b8114611aba57600080fd5b50565b600081359050611acc81611aa6565b92915050565b600060208284031215611ae857611ae761188a565b5b6000611af684828501611abd565b91505092915050565b600081519050919050565b600082825260208201905092915050565b6000819050602082019050919050565b611b3481611894565b82525050565b6000611b468383611b2b565b60208301905092915050565b6000602082019050919050565b6000611b6a82611aff565b611b748185611b0a565b9350611b7f83611b1b565b8060005b83811015611bb0578151611b978882611b3a565b9750611ba283611b52565b925050600181019050611b83565b5085935050505092915050565b60006020820190508181036000830152611bd78184611b5f565b905092915050565b611be881611917565b82525050565b600082825260208201905092915050565b6000611c0a82611938565b611c148185611bee565b9350611c24818560208601611954565b611c2d8161197e565b840191505092915050565b611c41816119d7565b82525050565b600061012083016000830151611c606000860182611bdf565b5060208301518482036020860152611c788282611bff565b91505060408301518482036040860152611c928282611bff565b91505060608301518482036060860152611cac8282611bff565b9150506080830151611cc16080860182611b2b565b5060a0830151611cd460a0860182611b2b565b5060c0830151611ce760c0860182611b2b565b5060e0830151611cfa60e0860182611c38565b50610100830151611d0f610100860182611c38565b508091505092915050565b60006020820190508181036000830152611d348184611c47565b905092915050565b6000602082019050611d5160008301846119c8565b92915050565b60008060408385031215611d6e57611d6d61188a565b5b6000611d7c85828601611abd565b9250506020611d8d858286016118b5565b9150509250929050565b6000602082019050611dac60008301846119e3565b92915050565b600081519050919050565b600082825260208201905092915050565b6000819050602082019050919050565b600061012083016000830151611df76000860182611bdf565b5060208301518482036020860152611e0f8282611bff565b91505060408301518482036040860152611e298282611bff565b91505060608301518482036060860152611e438282611bff565b9150506080830151611e586080860182611b2b565b5060a0830151611e6b60a0860182611b2b565b5060c0830151611e7e60c0860182611b2b565b5060e0830151611e9160e0860182611c38565b50610100830151611ea6610100860182611c38565b508091505092915050565b6000611ebd8383611dde565b905092915050565b6000602082019050919050565b6000611edd82611db2565b611ee78185611dbd565b935083602082028501611ef985611dce565b8060005b85811015611f355784840389528151611f168582611eb1565b9450611f2183611ec5565b925060208a01995050600181019050611efd565b50829750879550505050505092915050565b60006020820190508181036000830152611f618184611ed2565b905092915050565b600080fd5b600080fd5b7f4e487b7100000000000000000000000000000000000000000000000000000000600052604160045260246000fd5b611fab8261197e565b810181811067ffffffffffffffff82111715611fca57611fc9611f73565b5b80604052505050565b6000611fdd611880565b9050611fe98282611fa2565b919050565b600067ffffffffffffffff82111561200957612008611f73565b5b6120128261197e565b9050602081019050919050565b82818337600083830152505050565b600061204161203c84611fee565b611fd3565b90508281526020810184848401111561205d5761205c611f6e565b5b61206884828561201f565b509392505050565b600082601f83011261208557612084611f69565b5b813561209584826020860161202e565b91505092915050565b6120a7816119d7565b81146120b257600080fd5b50565b6000813590506120c48161209e565b92915050565b60008060008060008060c087890312156120e7576120e661188a565b5b600087013567ffffffffffffffff8111156121055761210461188f565b5b61211189828a01612070565b965050602087013567ffffffffffffffff8111156121325761213161188f565b5b61213e89828a01612070565b955050604061214f89828a016118b5565b945050606061216089828a016118b5565b935050608087013567ffffffffffffffff8111156121815761218061188f565b5b61218d89828a01612070565b92505060a061219e89828a016120b5565b9150509295509295509295565b7f4e487b7100000000000000000000000000000000000000000000000000000000600052602260045260246000fd5b600060028204905060018216806121f257607f821691505b602082108103612205576122046121ab565b5b50919050565b7f4e487b7100000000000000000000000000000000000000000000000000000000600052603260045260246000fd5b7f4e487b7100000000000000000000000000000000000000000000000000000000600052601160045260246000fd5b600061227482611894565b91507fffffffffffffffffffffffffffffffffffffffffffffffffffffffffffffffff82036122a6576122a561223a565b5b600182019050919050565b7f43616d706169676e20646f6573206e6f74206578697374000000000000000000600082015250565b60006122e7601783611943565b91506122f2826122b1565b602082019050919050565b60006020820190508181036000830152612316816122da565b9050919050565b7f43616d706169676e206973207374696c6c206163746976650000000000000000600082015250565b6000612353601883611943565b915061235e8261231d565b602082019050919050565b6000602082019050818103600083015261238281612346565b9050919050565b7f43616d706169676e20726561636865642069747320676f616c00000000000000600082015250565b60006123bf601983611943565b91506123ca82612389565b602082019050919050565b600060208201905081810360008301526123ee816123b2565b9050919050565b7f43616d706169676e20697320616c726561647920636f6d706c65746564000000600082015250565b600061242b601d83611943565b9150612436826123f5565b602082019050919050565b6000602082019050818103600083015261245a8161241e565b9050919050565b7f596f752068617665206e6f20646f6e6174696f6e7320746f20726566756e6400600082015250565b6000612497601f83611943565b91506124a282612461565b602082019050919050565b600060208201905081810360008301526124c68161248a565b9050919050565b60006124d882611894565b91506124e383611894565b92508282039050818111156124fb576124fa61223a565b5b92915050565b7f4f6e6c79206f776e65722063616e20636f6d706c657465207468652063616d7060008201527f6169676e00000000000000000000000000000000000000000000000000000000602082015250565b600061255d602483611943565b915061256882612501565b604082019050919050565b6000602082019050818103600083015261258c81612550565b9050919050565b7f43616d706169676e2063616e6e6f7420626520636f6d706c6574656420796574600082015250565b60006125c9602083611943565b91506125d482612593565b602082019050919050565b600060208201905081810360008301526125f8816125bc565b9050919050565b7f43616d706169676e2068617320656e6465640000000000000000000000000000600082015250565b6000612635601283611943565b9150612640826125ff565b602082019050919050565b6000602082019050818103600083015261266481612628565b9050919050565b7f446f6e6174696f6e206d7573742062652067726561746572207468616e203000600082015250565b60006126a1601f83611943565b91506126ac8261266b565b602082019050919050565b600060208201905081810360008301526126d081612694565b9050919050565b60006126e282611894565b91506126ed83611894565b92508282019050808211156127055761270461223a565b5b92915050565b7f476f616c206d7573742062652067726561746572207468616e20300000000000600082015250565b6000612741601b83611943565b915061274c8261270b565b602082019050919050565b6000602082019050818103600083015261277081612734565b9050919050565b7f4475726174696f6e206d7573742062652067726561746572207468616e203000600082015250565b60006127ad601f83611943565b91506127b882612777565b602082019050919050565b600060208201905081810360008301526127dc816127a0565b9050919050565b7f5469746c652063616e6e6f7420626520656d7074790000000000000000000000600082015250565b6000612819601583611943565b9150612824826127e3565b602082019050919050565b600060208201905081810360008301526128488161280c565b9050919050565b7f4465736372697074696f6e2063616e6e6f7420626520656d7074790000000000600082015250565b6000612885601b83611943565b91506128908261284f565b602082019050919050565b600060208201905081810360008301526128b481612878565b9050919050565b60006128c682611894565b91506128d183611894565b92508282026128df81611894565b915082820484148315176128f6576128f561223a565b5b5092915050565b60008190508160005260206000209050919050565b60006020601f8301049050919050565b600082821b905092915050565b60006008830261295f7fffffffffffffffffffffffffffffffffffffffffffffffffffffffffffffffff82612922565b6129698683612922565b95508019841693508086168417925050509392505050565b6000819050919050565b60006129a66129a161299c84611894565b612981565b611894565b9050919050565b6000819050919050565b6129c08361298b565b6129d46129cc826129ad565b84845461292f565b825550505050565b600090565b6129e96129dc565b6129f48184846129b7565b505050565b5b81811015612a1857612a0d6000826129e1565b6001810190506129fa565b5050565b601f821115612a5d57612a2e816128fd565b612a3784612912565b81016020851015612a46578190505b612a5a612a5285612912565b8301826129f9565b50505b505050565b600082821c905092915050565b6000612a8060001984600802612a62565b1980831691505092915050565b6000612a998383612a6f565b9150826002028217905092915050565b612ab282611938565b67ffffffffffffffff811115612acb57612aca611f73565b5b612ad582546121da565b612ae0828285612a1c565b600060209050601f831160018114612b135760008415612b01578287015190505b612b0b8582612a8d565b865550612b73565b601f198416612b21866128fd565b60005b82811015612b4957848901518255600182019150602085019450602081019050612b24565b86831015612b665784890151612b62601f891682612a6f565b8355505b6001600288020188555050505b505050505050565b600060a0820190508181036000830152612b95818861198f565b90508181036020830152612ba9818761198f565b90508181036040830152612bbd818661198f565b9050612bcc60608301856119c8565b612bd960808301846119c8565b969550505050505056fea264697066735822122072197053f95eb801b8d0d79738bb2ff4d5be24ff6ed4f081e9a1b42ab5b09b8964736f6c63430008130033",
  "linkReferences": {},
  "deployedLinkReferences": {}
}